Component: ARM Compiler 6.14 Tool: armlink [5db06800]

==============================================================================

Section Cross References

    startup_stm32f103xb.o(STACK) refers (Special) to heapauxi.o(.text) for __use_two_region_memory
    startup_stm32f103xb.o(HEAP) refers (Special) to heapauxi.o(.text) for __use_two_region_memory
    startup_stm32f103xb.o(RESET) refers (Special) to heapauxi.o(.text) for __use_two_region_memory
    startup_stm32f103xb.o(RESET) refers to startup_stm32f103xb.o(STACK) for __initial_sp
    startup_stm32f103xb.o(RESET) refers to startup_stm32f103xb.o(.text) for Reset_Handler
    startup_stm32f103xb.o(RESET) refers to stm32f1xx_it.o(.text.NMI_Handler) for NMI_Handler
    startup_stm32f103xb.o(RESET) refers to stm32f1xx_it.o(.text.HardFault_Handler) for HardFault_Handler
    startup_stm32f103xb.o(RESET) refers to stm32f1xx_it.o(.text.MemManage_Handler) for MemManage_Handler
    startup_stm32f103xb.o(RESET) refers to stm32f1xx_it.o(.text.BusFault_Handler) for BusFault_Handler
    startup_stm32f103xb.o(RESET) refers to stm32f1xx_it.o(.text.UsageFault_Handler) for UsageFault_Handler
    startup_stm32f103xb.o(RESET) refers to stm32f1xx_it.o(.text.SVC_Handler) for SVC_Handler
    startup_stm32f103xb.o(RESET) refers to stm32f1xx_it.o(.text.DebugMon_Handler) for DebugMon_Handler
    startup_stm32f103xb.o(RESET) refers to stm32f1xx_it.o(.text.PendSV_Handler) for PendSV_Handler
    startup_stm32f103xb.o(RESET) refers to stm32f1xx_it.o(.text.SysTick_Handler) for SysTick_Handler
    startup_stm32f103xb.o(RESET) refers to stm32f1xx_it.o(.text.DMA1_Channel1_IRQHandler) for DMA1_Channel1_IRQHandler
    startup_stm32f103xb.o(RESET) refers to stm32f1xx_it.o(.text.DMA1_Channel4_IRQHandler) for DMA1_Channel4_IRQHandler
    startup_stm32f103xb.o(RESET) refers to stm32f1xx_it.o(.text.DMA1_Channel5_IRQHandler) for DMA1_Channel5_IRQHandler
    startup_stm32f103xb.o(RESET) refers to stm32f1xx_it.o(.text.ADC1_2_IRQHandler) for ADC1_2_IRQHandler
==============================================================================

Removing Unused input sections from the image.

    Removing maglev_plate.o(.text), (0 bytes).
    Removing maglev_plate.o(.ARM.exidx.text.pid_calc), (8 bytes).
    Removing maglev_plate.o(.ARM.exidx.text.mp_init), (8 bytes).
    Removing maglev_plate.o(.ARM.exidx.text.mp_set_output), (8 bytes).
    Removing maglev_plate.o(.ARM.exidx.text.HAL_ADC_ConvCpltCallback), (8 bytes).
    Removing main.o(.text), (0 bytes).
    Removing main.o(.ARM.exidx.text.main), (8 bytes).
    Removing main.o(.ARM.exidx.text.SystemClock_Config), (8 bytes).
    Removing main.o(.ARM.exidx.text.Error_Handler), (8 bytes).
    Removing main.o(.ARM.use_no_argv), (4 bytes).
    Removing gpio.o(.text), (0 bytes).
    Removing gpio.o(.ARM.exidx.text.MX_GPIO_Init), (8 bytes).
    Removing adc.o(.text), (0 bytes).
    Removing adc.o(.ARM.exidx.text.MX_ADC1_Init), (8 bytes).
    Removing adc.o(.ARM.exidx.text.HAL_ADC_MspInit), (8 bytes).
    Removing adc.o(.text.HAL_ADC_MspDeInit), (60 bytes).
    Removing adc.o(.ARM.exidx.text.HAL_ADC_MspDeInit), (8 bytes).
    Removing dma.o(.text), (0 bytes).
==============================================================================

Image Symbol Table

    Local Symbols

    Symbol Name                              Value     Ov Type        Size  Object(Section)

    ../clib/angel/boardlib.s                 0x00000000   Number         0  boardinit1.o ABSOLUTE
    ../clib/angel/boardlib.s                 0x00000000   Number         0  boardinit2.o ABSOLUTE
    ../clib/angel/boardlib.s                 0x00000000   Number         0  boardinit3.o ABSOLUTE
    ../clib/angel/boardlib.s                 0x00000000   Number         0  boardshut.o ABSOLUTE
    ../clib/angel/handlers.s                 0x00000000   Number         0  __scatter_copy.o ABSOLUTE
    ../clib/angel/handlers.s                 0x00000000   Number         0  __scatter_zi.o ABSOLUTE
    ../clib/angel/kernel.s                   0x00000000   Number         0  __rtentry.o ABSOLUTE
    ../clib/angel/kernel.s                   0x00000000   Number         0  __rtentry2.o ABSOLUTE
    ../clib/angel/kernel.s                   0x00000000   Number         0  __rtentry4.o ABSOLUTE
    ../clib/angel/kernel.s                   0x00000000   Number         0  rtexit.o ABSOLUTE
    ../clib/angel/kernel.s                   0x00000000   Number         0  rtexit2.o ABSOLUTE
    ../clib/angel/rt.s                       0x00000000   Number         0  rt_errno_addr.o ABSOLUTE
    ../clib/angel/rt.s                       0x00000000   Number         0  rt_errno_addr_intlibspace.o ABSOLUTE
    ../clib/angel/rt.s                       0x00000000   Number         0  rt_raise.o ABSOLUTE
    ../clib/angel/scatter.s                  0x00000000   Number         0  __scatter.o ABSOLUTE
    ../clib/angel/startup.s                  0x00000000   Number         0  __main.o ABSOLUTE
    ../clib/angel/sys.s                      0x00000000   Number         0  libspace.o ABSOLUTE
    ../clib/angel/sys.s                      0x00000000   Number         0  sys_stackheap_outer.o ABSOLUTE
    ../clib/angel/sys.s                      0x00000000   Number         0  use_no_semi.o ABSOLUTE
    ../clib/angel/sys.s                      0x00000000   Number         0  indicate_semi.o ABSOLUTE
    ../clib/angel/sysapp.c                   0x00000000   Number         0  sys_exit.o ABSOLUTE
    ../clib/angel/sysapp.c                   0x00000000   Number         0  sys_exit_hlt.o ABSOLUTE
    ../clib/angel/sysapp.c                   0x00000000   Number         0  sys_command.o ABSOLUTE
    ../clib/angel/sysapp.c                   0x00000000   Number         0  sys_command_hlt.o ABSOLUTE
    ../clib/angel/sysapp.c                   0x00000000   Number         0  sys_wrch.o ABSOLUTE
    ../clib/angel/sysapp.c                   0x00000000   Number         0  sys_wrch_hlt.o ABSOLUTE
    ../clib/armsys.c                         0x00000000   Number         0  argv_veneer.o ABSOLUTE
    ../clib/armsys.c                         0x00000000   Number         0  argv_veneer.o ABSOLUTE
    ../clib/armsys.c                         0x00000000   Number         0  _get_argv_nomalloc.o ABSOLUTE
    ../clib/armsys.c                         0x00000000   Number         0  no_argv.o ABSOLUTE
    ../clib/fenv.c                           0x00000000   Number         0  _rserrno.o ABSOLUTE
    ../clib/heapalloc.c                      0x00000000   Number         0  hrguard.o ABSOLUTE
    ../clib/heapaux.c                        0x00000000   Number         0  heapauxi.o ABSOLUTE
    ../clib/libinit.s                        0x00000000   Number         0  libinit.o ABSOLUTE
    ../clib/libinit.s                        0x00000000   Number         0  libinit2.o ABSOLUTE
    ../clib/libinit.s                        0x00000000   Number         0  libshutdown.o ABSOLUTE
    ../clib/libinit.s                        0x00000000   Number         0  libshutdown2.o ABSOLUTE
    ../clib/longlong.s                       0x00000000   Number         0  llushr.o ABSOLUTE
    ../clib/memcpset.s                       0x00000000   Number         0  rt_memclr_w.o ABSOLUTE
    ../clib/printf.c                         0x00000000   Number         0  __2sprintf.o ABSOLUTE
    ../clib/printf.c                         0x00000000   Number         0  noretval__2sprintf.o ABSOLUTE
    ../clib/printf.c                         0x00000000   Number         0  __printf.o ABSOLUTE
    ../clib/printf.c                         0x00000000   Number         0  _printf_dec.o ABSOLUTE
    ../clib/printf.c                         0x00000000   Number         0  __printf_flags.o ABSOLUTE
    ../clib/printf.c                         0x00000000   Number         0  __printf_ss.o ABSOLUTE
    ../clib/printf.c                         0x00000000   Number         0  __printf_flags_ss.o ABSOLUTE
    ../clib/printf.c                         0x00000000   Number         0  __printf_wp.o ABSOLUTE
    ../clib/printf.c                         0x00000000   Number         0  __printf_flags_wp.o ABSOLUTE
    ../clib/printf.c                         0x00000000   Number         0  __printf_ss_wp.o ABSOLUTE
    ../clib/printf.c                         0x00000000   Number         0  __printf_flags_ss_wp.o ABSOLUTE
    ../clib/printf.c                         0x00000000   Number         0  _printf_intcommon.o ABSOLUTE
    ../clib/printf.c                         0x00000000   Number         0  _printf_char_common.o ABSOLUTE
    ../clib/printf.c                         0x00000000   Number         0  _sputc.o ABSOLUTE
    ../clib/printf.c                         0x00000000   Number         0  __printf_nopercent.o ABSOLUTE
    ../clib/printf_percent.s                 0x00000000   Number         0  _printf_d.o ABSOLUTE
    ../clib/printf_percent.s                 0x00000000   Number         0  _printf_percent.o ABSOLUTE
    ../clib/printf_percent.s                 0x00000000   Number         0  _printf_percent_end.o ABSOLUTE
    ../clib/signal.c                         0x00000000   Number         0  defsig_rtmem_outer.o ABSOLUTE
    ../clib/signal.c                         0x00000000   Number         0  defsig_rtmem_formal.o ABSOLUTE
    ../clib/signal.c                         0x00000000   Number         0  defsig_exit.o ABSOLUTE
    ../clib/signal.c                         0x00000000   Number         0  defsig_rtmem_inner.o ABSOLUTE
    ../clib/signal.c                         0x00000000   Number         0  __raise.o ABSOLUTE
    ../clib/signal.c                         0x00000000   Number         0  defsig_general.o ABSOLUTE
    ../clib/signal.c                         0x00000000   Number         0  defsig_abrt_inner.o ABSOLUTE
    ../clib/signal.c                         0x00000000   Number         0  defsig_fpe_inner.o ABSOLUTE
    ../clib/signal.c                         0x00000000   Number         0  defsig_rtred_inner.o ABSOLUTE
    ../clib/signal.c                         0x00000000   Number         0  defsig_stak_inner.o ABSOLUTE
    ../clib/signal.c                         0x00000000   Number         0  defsig_pvfn_inner.o ABSOLUTE
    ../clib/signal.c                         0x00000000   Number         0  defsig_cppl_inner.o ABSOLUTE
    ../clib/signal.c                         0x00000000   Number         0  defsig_segv_inner.o ABSOLUTE
    ../clib/signal.c                         0x00000000   Number         0  defsig_other.o ABSOLUTE
    ../clib/signal.s                         0x00000000   Number         0  defsig.o ABSOLUTE
    ../clib/stdlib.c                         0x00000000   Number         0  exit.o ABSOLUTE
    ../clib/string.c                         0x00000000   Number         0  strlen.o ABSOLUTE
    ../fplib/d2f.s                           0x00000000   Number         0  d2f.o ABSOLUTE
    ../fplib/daddsub.s                       0x00000000   Number         0  daddsub_clz.o ABSOLUTE
    ../fplib/dcheck1.s                       0x00000000   Number         0  dcheck1.o ABSOLUTE
    ../fplib/dcmp.s                          0x00000000   Number         0  dcmp.o ABSOLUTE
    ../fplib/dcmpi.s                         0x00000000   Number         0  dcmpi.o ABSOLUTE
    ../fplib/ddiv.s                          0x00000000   Number         0  ddiv.o ABSOLUTE
    ../fplib/deqf.s                          0x00000000   Number         0  deqf.o ABSOLUTE
    ../fplib/dfix.s                          0x00000000   Number         0  dfix.o ABSOLUTE
    ../fplib/dflt.s                          0x00000000   Number         0  dflt_clz.o ABSOLUTE
    ../fplib/dgeqf.s                         0x00000000   Number         0  dgeqf.o ABSOLUTE
    ../fplib/dleqf.s                         0x00000000   Number         0  dleqf.o ABSOLUTE
    ../fplib/dmul.s                          0x00000000   Number         0  dmul.o ABSOLUTE
    ../fplib/dnaninf.s                       0x00000000   Number         0  dnaninf.o ABSOLUTE
    ../fplib/dretinf.s                       0x00000000   Number         0  dretinf.o ABSOLUTE
    ../fplib/f2d.s                           0x00000000   Number         0  f2d.o ABSOLUTE
    ../fplib/faddsub.s                       0x00000000   Number         0  faddsub_clz.o ABSOLUTE
    ../fplib/fcmp.s                          0x00000000   Number         0  fcmp.o ABSOLUTE
    ../fplib/fcmpi.s                         0x00000000   Number         0  fcmpi.o ABSOLUTE
    ../fplib/feqf.s                          0x00000000   Number         0  feqf.o ABSOLUTE
    ../fplib/ffix.s                          0x00000000   Number         0  ffix.o ABSOLUTE
    ../fplib/fflt.s                          0x00000000   Number         0  fflt_clz.o ABSOLUTE
    ../fplib/fgeqf.s                         0x00000000   Number         0  fgeqf.o ABSOLUTE
    ../fplib/fleqf.s                         0x00000000   Number         0  fleqf.o ABSOLUTE
    ../fplib/fmul.s                          0x00000000   Number         0  fmul.o ABSOLUTE
    ../fplib/fnaninf.s                       0x00000000   Number         0  fnaninf.o ABSOLUTE
    ../fplib/fpinit.s                        0x00000000   Number         0  fpinit.o ABSOLUTE
    ../fplib/fpinit_empty.s                  0x00000000   Number         0  fpinit_empty.o ABSOLUTE
    ../fplib/fretinf.s                       0x00000000   Number         0  fretinf.o ABSOLUTE
    ../fplib/retnan.s                        0x00000000   Number         0  retnan.o ABSOLUTE
    ../fplib/scalbn.s                        0x00000000   Number         0  scalbn.o ABSOLUTE
    ../fplib/trapv.s                         0x00000000   Number         0  trapv.o ABSOLUTE
    ../fplib/usenofp.s                       0x00000000   Number         0  usenofp.o ABSOLUTE
    ../mathlib/cos.c                         0x00000000   Number         0  cos.o ABSOLUTE
    ../mathlib/cos.c                         0x00000000   Number         0  cos_x.o ABSOLUTE
    ../mathlib/cos_i.c                       0x00000000   Number         0  cos_i.o ABSOLUTE
    ../mathlib/dunder.c                      0x00000000   Number         0  dunder.o ABSOLUTE
    ../mathlib/fpclassify.c                  0x00000000   Number         0  fpclassify.o ABSOLUTE
    ../mathlib/poly.c                        0x00000000   Number         0  poly.o ABSOLUTE
    ../mathlib/rred.c                        0x00000000   Number         0  rred.o ABSOLUTE
    ../mathlib/sin.c                         0x00000000   Number         0  sin.o ABSOLUTE
    ../mathlib/sin.c                         0x00000000   Number         0  sin_x.o ABSOLUTE
    ../mathlib/sin_i.c                       0x00000000   Number         0  sin_i.o ABSOLUTE
    ../mathlib/sin_i.c                       0x00000000   Number         0  sin_i_x.o ABSOLUTE
    adc.c                                    0x00000000   Number         0  adc.o ABSOLUTE
    dc.s                                     0x00000000   Number         0  dc.o ABSOLUTE
    dma.c                                    0x00000000   Number         0  dma.o ABSOLUTE
    gpio.c                                   0x00000000   Number         0  gpio.o ABSOLUTE
    maglev_plate.c                           0x00000000   Number         0  maglev_plate.o ABSOLUTE
    main.c                                   0x00000000   Number         0  main.o ABSOLUTE
    startup_stm32f103xb.s                    0x00000000   Number         0  startup_stm32f103xb.o ABSOLUTE
    stm32f1xx_hal.c                          0x00000000   Number         0  stm32f1xx_hal.o ABSOLUTE
    stm32f1xx_hal_adc.c                      0x00000000   Number         0  stm32f1xx_hal_adc.o ABSOLUTE
    stm32f1xx_hal_adc_ex.c                   0x00000000   Number         0  stm32f1xx_hal_adc_ex.o ABSOLUTE
    stm32f1xx_hal_cortex.c                   0x00000000   Number         0  stm32f1xx_hal_cortex.o ABSOLUTE
    stm32f1xx_hal_dma.c                      0x00000000   Number         0  stm32f1xx_hal_dma.o ABSOLUTE
    stm32f1xx_hal_exti.c                     0x00000000   Number         0  stm32f1xx_hal_exti.o ABSOLUTE
    stm32f1xx_hal_flash.c                    0x00000000   Number         0  stm32f1xx_hal_flash.o ABSOLUTE
    stm32f1xx_hal_flash_ex.c                 0x00000000   Number         0  stm32f1xx_hal_flash_ex.o ABSOLUTE
    stm32f1xx_hal_gpio.c                     0x00000000   Number         0  stm32f1xx_hal_gpio.o ABSOLUTE
    stm32f1xx_hal_gpio_ex.c                  0x00000000   Number         0  stm32f1xx_hal_gpio_ex.o ABSOLUTE
    stm32f1xx_hal_msp.c                      0x00000000   Number         0  stm32f1xx_hal_msp.o ABSOLUTE
    stm32f1xx_hal_pwr.c                      0x00000000   Number         0  stm32f1xx_hal_pwr.o ABSOLUTE
    stm32f1xx_hal_rcc.c                      0x00000000   Number         0  stm32f1xx_hal_rcc.o ABSOLUTE
    stm32f1xx_hal_rcc_ex.c                   0x00000000   Number         0  stm32f1xx_hal_rcc_ex.o ABSOLUTE
    stm32f1xx_hal_tim.c                      0x00000000   Number         0  stm32f1xx_hal_tim.o ABSOLUTE
    stm32f1xx_hal_tim_ex.c                   0x00000000   Number         0  stm32f1xx_hal_tim_ex.o ABSOLUTE
    stm32f1xx_hal_uart.c                     0x00000000   Number         0  stm32f1xx_hal_uart.o ABSOLUTE
    stm32f1xx_it.c                           0x00000000   Number         0  stm32f1xx_it.o ABSOLUTE
    system_stm32f1xx.c                       0x00000000   Number         0  system_stm32f1xx.o ABSOLUTE
    tim.c                                    0x00000000   Number         0  tim.o ABSOLUTE
    usart.c                                  0x00000000   Number         0  usart.o ABSOLUTE
    RESET                                    0x08000000   Section      236  startup_stm32f103xb.o(RESET)
    !!!main                                  0x080000ec   Section        8  __main.o(!!!main)
    !!!scatter                               0x080000f4   Section       52  __scatter.o(!!!scatter)
    !!handler_copy                           0x08000128   Section       26  __scatter_copy.o(!!handler_copy)
    !!handler_zi                             0x08000144   Section       28  __scatter_zi.o(!!handler_zi)
    .ARM.Collect$$_printf_percent$$00000000  0x08000160   Section        0  _printf_percent.o(.ARM.Collect$$_printf_percent$$00000000)
    .ARM.Collect$$_printf_percent$$00000009  0x08000160   Section        6  _printf_d.o(.ARM.Collect$$_printf_percent$$00000009)
    .ARM.Collect$$_printf_percent$$00000017  0x08000166   Section        4  _printf_percent_end.o(.ARM.Collect$$_printf_percent$$00000017)
    .ARM.Collect$$libinit$$00000000          0x0800016a   Section        2  libinit.o(.ARM.Collect$$libinit$$00000000)
    .ARM.Collect$$libinit$$00000002          0x0800016c   Section        0  libinit2.o(.ARM.Collect$$libinit$$00000002)
    .ARM.Collect$$libinit$$00000004          0x0800016c   Section        0  libinit2.o(.ARM.Collect$$libinit$$00000004)
    .ARM.Collect$$libinit$$0000000A          0x0800016c   Section        0  libinit2.o(.ARM.Collect$$libinit$$0000000A)
    .ARM.Collect$$libinit$$0000000C          0x0800016c   Section        0  libinit2.o(.ARM.Collect$$libinit$$0000000C)
    .ARM.Collect$$libinit$$0000000E          0x0800016c   Section        0  libinit2.o(.ARM.Collect$$libinit$$0000000E)
    .ARM.Collect$$libinit$$00000011          0x0800016c   Section        0  libinit2.o(.ARM.Collect$$libinit$$00000011)
    .ARM.Collect$$libinit$$00000013          0x0800016c   Section        0  libinit2.o(.ARM.Collect$$libinit$$00000013)
    .ARM.Collect$$libinit$$00000015          0x0800016c   Section        0  libinit2.o(.ARM.Collect$$libinit$$00000015)
    .ARM.Collect$$libinit$$00000017          0x0800016c   Section        0  libinit2.o(.ARM.Collect$$libinit$$00000017)
    .ARM.Collect$$libinit$$00000019          0x0800016c   Section        0  libinit2.o(.ARM.Collect$$libinit$$00000019)
    .ARM.Collect$$libinit$$0000001B          0x0800016c   Section        0  libinit2.o(.ARM.Collect$$libinit$$0000001B)
    .ARM.Collect$$libinit$$0000001D          0x0800016c   Section        0  libinit2.o(.ARM.Collect$$libinit$$0000001D)
    .ARM.Collect$$libinit$$0000001F          0x0800016c   Section        0  libinit2.o(.ARM.Collect$$libinit$$0000001F)
    .ARM.Collect$$libinit$$00000021          0x0800016c   Section        0  libinit2.o(.ARM.Collect$$libinit$$00000021)
    .ARM.Collect$$libinit$$00000023          0x0800016c   Section        0  libinit2.o(.ARM.Collect$$libinit$$00000023)
    .ARM.Collect$$libinit$$00000025          0x0800016c   Section        0  libinit2.o(.ARM.Collect$$libinit$$00000025)
    .ARM.Collect$$libinit$$0000002C          0x0800016c   Section        0  libinit2.o(.ARM.Collect$$libinit$$0000002C)
    .ARM.Collect$$libinit$$0000002E          0x0800016c   Section        0  libinit2.o(.ARM.Collect$$libinit$$0000002E)
    .ARM.Collect$$libinit$$00000030          0x0800016c   Section        0  libinit2.o(.ARM.Collect$$libinit$$00000030)
    .ARM.Collect$$libinit$$00000032          0x0800016c   Section        0  libinit2.o(.ARM.Collect$$libinit$$00000032)
    .ARM.Collect$$libinit$$00000033          0x0800016c   Section        2  libinit2.o(.ARM.Collect$$libinit$$00000033)
    .ARM.Collect$$libshutdown$$00000000      0x0800016e   Section        2  libshutdown.o(.ARM.Collect$$libshutdown$$00000000)
    .ARM.Collect$$libshutdown$$00000002      0x08000170   Section        0  libshutdown2.o(.ARM.Collect$$libshutdown$$00000002)
    .ARM.Collect$$libshutdown$$00000004      0x08000170   Section        0  libshutdown2.o(.ARM.Collect$$libshutdown$$00000004)
    .ARM.Collect$$libshutdown$$00000007      0x08000170   Section        0  libshutdown2.o(.ARM.Collect$$libshutdown$$00000007)
    .ARM.Collect$$libshutdown$$0000000A      0x08000170   Section        0  libshutdown2.o(.ARM.Collect$$libshutdown$$0000000A)
    .ARM.Collect$$libshutdown$$0000000C      0x08000170   Section        0  libshutdown2.o(.ARM.Collect$$libshutdown$$0000000C)
    .ARM.Collect$$libshutdown$$0000000F      0x08000170   Section        0  libshutdown2.o(.ARM.Collect$$libshutdown$$0000000F)
    .ARM.Collect$$libshutdown$$00000010      0x08000170   Section        2  libshutdown2.o(.ARM.Collect$$libshutdown$$00000010)
    .ARM.Collect$$rtentry$$00000000          0x08000172   Section        0  __rtentry.o(.ARM.Collect$$rtentry$$00000000)
    .ARM.Collect$$rtentry$$00000002          0x08000172   Section        0  __rtentry2.o(.ARM.Collect$$rtentry$$00000002)
    .ARM.Collect$$rtentry$$00000004          0x08000172   Section        6  __rtentry4.o(.ARM.Collect$$rtentry$$00000004)
    .ARM.Collect$$rtentry$$00000009          0x08000178   Section        0  __rtentry2.o(.ARM.Collect$$rtentry$$00000009)
    .ARM.Collect$$rtentry$$0000000A          0x08000178   Section        4  __rtentry2.o(.ARM.Collect$$rtentry$$0000000A)
    .ARM.Collect$$rtentry$$0000000C          0x0800017c   Section        0  __rtentry2.o(.ARM.Collect$$rtentry$$0000000C)
    .ARM.Collect$$rtentry$$0000000D          0x0800017c   Section        8  __rtentry2.o(.ARM.Collect$$rtentry$$0000000D)
    .ARM.Collect$$rtexit$$00000000           0x08000184   Section        2  rtexit.o(.ARM.Collect$$rtexit$$00000000)
    .ARM.Collect$$rtexit$$00000002           0x08000186   Section        0  rtexit2.o(.ARM.Collect$$rtexit$$00000002)
    .ARM.Collect$$rtexit$$00000003           0x08000186   Section        4  rtexit2.o(.ARM.Collect$$rtexit$$00000003)
    .ARM.Collect$$rtexit$$00000004           0x0800018a   Section        6  rtexit2.o(.ARM.Collect$$rtexit$$00000004)
    .text                                    0x08000190   Section       64  startup_stm32f103xb.o(.text)
    .text                                    0x080001d0   Section        0  noretval__2sprintf.o(.text)
    .text                                    0x080001f8   Section        0  __printf.o(.text)
    .text                                    0x08000260   Section        0  _printf_dec.o(.text)
    .text                                    0x080002d8   Section        0  strlen.o(.text)
    .text                                    0x08000316   Section       78  rt_memclr_w.o(.text)
    .text                                    0x08000364   Section        0  heapauxi.o(.text)
    .text                                    0x0800036a   Section        0  _rserrno.o(.text)
    .text                                    0x08000380   Section        0  _printf_intcommon.o(.text)
    _printf_input_char                       0x08000435   Thumb Code    10  _printf_char_common.o(.text)
    .text                                    0x08000434   Section        0  _printf_char_common.o(.text)
    .text                                    0x08000464   Section        0  _sputc.o(.text)
    .text                                    0x08000470   Section        8  rt_errno_addr_intlibspace.o(.text)
    .text                                    0x08000478   Section        8  libspace.o(.text)
    .text                                    0x08000480   Section       74  sys_stackheap_outer.o(.text)
    .text                                    0x080004ca   Section        0  exit.o(.text)
    .text                                    0x080004dc   Section        0  sys_exit.o(.text)
    .text                                    0x080004e8   Section        2  use_no_semi.o(.text)
    .text                                    0x080004ea   Section        0  indicate_semi.o(.text)
    [Anonymous Symbol]                       0x080004ec   Section        0  stm32f1xx_it.o(.text.ADC1_2_IRQHandler)
    __arm_cp.12_0                            0x080004f4   Number         4  stm32f1xx_it.o(.text.ADC1_2_IRQHandler)
    [Anonymous Symbol]                       0x080004f8   Section        0  stm32f1xx_hal_adc.o(.text.ADC_ConversionStop_Disable)
    [Anonymous Symbol]                       0x08000544   Section        0  stm32f1xx_hal_adc.o(.text.ADC_DMAConvCplt)
    [Anonymous Symbol]                       0x08000590   Section        0  stm32f1xx_hal_adc.o(.text.ADC_DMAError)
    [Anonymous Symbol]                       0x080005a6   Section        0  stm32f1xx_hal_adc.o(.text.ADC_DMAHalfConvCplt)
    [Anonymous Symbol]                       0x080005ac   Section        0  stm32f1xx_hal_adc.o(.text.ADC_Enable)
    [Anonymous Symbol]                       0x08000618   Section        0  stm32f1xx_it.o(.text.BusFault_Handler)
    [Anonymous Symbol]                       0x0800061c   Section        0  stm32f1xx_it.o(.text.DMA1_Channel1_IRQHandler)
    __arm_cp.9_0                             0x08000624   Number         4  stm32f1xx_it.o(.text.DMA1_Channel1_IRQHandler)
    [Anonymous Symbol]                       0x08000628   Section        0  stm32f1xx_it.o(.text.DMA1_Channel4_IRQHandler)
    __arm_cp.10_0                            0x08000630   Number         4  stm32f1xx_it.o(.text.DMA1_Channel4_IRQHandler)
    [Anonymous Symbol]                       0x08000634   Section        0  stm32f1xx_it.o(.text.DMA1_Channel5_IRQHandler)
    __arm_cp.11_0                            0x0800063c   Number         4  stm32f1xx_it.o(.text.DMA1_Channel5_IRQHandler)
    DMA_SetConfig                            0x08000641   Thumb Code    38  stm32f1xx_hal_dma.o(.text.DMA_SetConfig)
    [Anonymous Symbol]                       0x08000640   Section        0  stm32f1xx_hal_dma.o(.text.DMA_SetConfig)
    [Anonymous Symbol]                       0x08000666   Section        0  stm32f1xx_it.o(.text.DebugMon_Handler)
    [Anonymous Symbol]                       0x08000668   Section        0  main.o(.text.Error_Handler)
    [Anonymous Symbol]                       0x08000670   Section        0  stm32f1xx_hal_adc_ex.o(.text.HAL_ADCEx_InjectedConvCpltCallback)
    [Anonymous Symbol]                       0x08000674   Section        0  stm32f1xx_hal_adc.o(.text.HAL_ADC_ConfigChannel)
    __arm_cp.23_0                            0x0800077c   Number         4  stm32f1xx_hal_adc.o(.text.HAL_ADC_ConfigChannel)
    __arm_cp.23_1                            0x08000780   Number         4  stm32f1xx_hal_adc.o(.text.HAL_ADC_ConfigChannel)
    __arm_cp.23_2                            0x08000784   Number         4  stm32f1xx_hal_adc.o(.text.HAL_ADC_ConfigChannel)
    [Anonymous Symbol]                       0x08000788   Section        0  maglev_plate.o(.text.HAL_ADC_ConvCpltCallback)
    __arm_cp.3_0                             0x08000840   Number         4  maglev_plate.o(.text.HAL_ADC_ConvCpltCallback)
    __arm_cp.3_1                             0x08000844   Number         4  maglev_plate.o(.text.HAL_ADC_ConvCpltCallback)
    __arm_cp.3_3                             0x08000858   Number         4  maglev_plate.o(.text.HAL_ADC_ConvCpltCallback)
    [Anonymous Symbol]                       0x0800085c   Section        0  stm32f1xx_hal_adc.o(.text.HAL_ADC_ConvHalfCpltCallback)
    [Anonymous Symbol]                       0x0800085e   Section        0  stm32f1xx_hal_adc.o(.text.HAL_ADC_ErrorCallback)
    [Anonymous Symbol]                       0x08000860   Section        0  stm32f1xx_hal_adc.o(.text.HAL_ADC_IRQHandler)
    [Anonymous Symbol]                       0x0800094c   Section        0  stm32f1xx_hal_adc.o(.text.HAL_ADC_Init)
    __arm_cp.0_0                             0x08000a4c   Number         4  stm32f1xx_hal_adc.o(.text.HAL_ADC_Init)
    __arm_cp.0_1                             0x08000a50   Number         4  stm32f1xx_hal_adc.o(.text.HAL_ADC_Init)
    __arm_cp.0_2                             0x08000a54   Number         4  stm32f1xx_hal_adc.o(.text.HAL_ADC_Init)
    __arm_cp.0_3                             0x08000a58   Number         4  stm32f1xx_hal_adc.o(.text.HAL_ADC_Init)
    [Anonymous Symbol]                       0x08000a5c   Section        0  stm32f1xx_hal_adc.o(.text.HAL_ADC_LevelOutOfWindowCallback)
    [Anonymous Symbol]                       0x08000a60   Section        0  adc.o(.text.HAL_ADC_MspInit)
    __arm_cp.1_0                             0x08000af8   Number         4  adc.o(.text.HAL_ADC_MspInit)
    __arm_cp.1_1                             0x08000afc   Number         4  adc.o(.text.HAL_ADC_MspInit)
    __arm_cp.1_2                             0x08000b00   Number         4  adc.o(.text.HAL_ADC_MspInit)
    [Anonymous Symbol]                       0x08000b04   Section        0  stm32f1xx_hal_adc.o(.text.HAL_ADC_Start_DMA)
    __arm_cp.12_0                            0x08000bec   Number         4  stm32f1xx_hal_adc.o(.text.HAL_ADC_Start_DMA)
    __arm_cp.12_1                            0x08000bf0   Number         4  stm32f1xx_hal_adc.o(.text.HAL_ADC_Start_DMA)
    __arm_cp.12_2                            0x08000bf4   Number         4  stm32f1xx_hal_adc.o(.text.HAL_ADC_Start_DMA)
    __arm_cp.12_3                            0x08000bf8   Number         4  stm32f1xx_hal_adc.o(.text.HAL_ADC_Start_DMA)
    __arm_cp.12_4                            0x08000bfc   Number         4  stm32f1xx_hal_adc.o(.text.HAL_ADC_Start_DMA)
    __arm_cp.12_5                            0x08000c00   Number         4  stm32f1xx_hal_adc.o(.text.HAL_ADC_Start_DMA)
    [Anonymous Symbol]                       0x08000c04   Section        0  stm32f1xx_hal_dma.o(.text.HAL_DMA_Abort)
    [Anonymous Symbol]                       0x08000c44   Section        0  stm32f1xx_hal_dma.o(.text.HAL_DMA_Abort_IT)
    [Anonymous Symbol]                       0x08000ccc   Section        0  stm32f1xx_hal_dma.o(.text.HAL_DMA_IRQHandler)
    __arm_cp.8_0                             0x08000dec   Number         4  stm32f1xx_hal_dma.o(.text.HAL_DMA_IRQHandler)
    __arm_cp.8_1                             0x08000df0   Number         4  stm32f1xx_hal_dma.o(.text.HAL_DMA_IRQHandler)
    __arm_cp.8_2                             0x08000df4   Number         4  stm32f1xx_hal_dma.o(.text.HAL_DMA_IRQHandler)
    __arm_cp.8_3                             0x08000df8   Number         4  stm32f1xx_hal_dma.o(.text.HAL_DMA_IRQHandler)
    __arm_cp.8_4                             0x08000dfc   Number         4  stm32f1xx_hal_dma.o(.text.HAL_DMA_IRQHandler)
    __arm_cp.8_5                             0x08000e00   Number         4  stm32f1xx_hal_dma.o(.text.HAL_DMA_IRQHandler)
    [Anonymous Symbol]                       0x08000e04   Section        0  stm32f1xx_hal_dma.o(.text.HAL_DMA_Init)
    __arm_cp.0_0                             0x08000e68   Number         4  stm32f1xx_hal_dma.o(.text.HAL_DMA_Init)
    __arm_cp.0_1                             0x08000e6c   Number         4  stm32f1xx_hal_dma.o(.text.HAL_DMA_Init)
    [Anonymous Symbol]                       0x08000e70   Section        0  stm32f1xx_hal_dma.o(.text.HAL_DMA_Start_IT)
    [Anonymous Symbol]                       0x08000ed8   Section        0  stm32f1xx_hal.o(.text.HAL_Delay)
    [Anonymous Symbol]                       0x08000ef8   Section        0  stm32f1xx_hal_gpio.o(.text.HAL_GPIO_Init)
    __arm_cp.0_0                             0x08001064   Number         4  stm32f1xx_hal_gpio.o(.text.HAL_GPIO_Init)
    __arm_cp.0_1                             0x08001068   Number         4  stm32f1xx_hal_gpio.o(.text.HAL_GPIO_Init)
    __arm_cp.0_2                             0x0800106c   Number         4  stm32f1xx_hal_gpio.o(.text.HAL_GPIO_Init)
    __arm_cp.0_4                             0x08001070   Number         4  stm32f1xx_hal_gpio.o(.text.HAL_GPIO_Init)
    __arm_cp.0_5                             0x08001074   Number         4  stm32f1xx_hal_gpio.o(.text.HAL_GPIO_Init)
    __arm_cp.0_6                             0x08001078   Number         4  stm32f1xx_hal_gpio.o(.text.HAL_GPIO_Init)
    __arm_cp.0_7                             0x0800107c   Number         4  stm32f1xx_hal_gpio.o(.text.HAL_GPIO_Init)
    __arm_cp.0_8                             0x08001080   Number         4  stm32f1xx_hal_gpio.o(.text.HAL_GPIO_Init)
    __arm_cp.0_9                             0x08001084   Number         4  stm32f1xx_hal_gpio.o(.text.HAL_GPIO_Init)
    __arm_cp.0_10                            0x08001088   Number         4  stm32f1xx_hal_gpio.o(.text.HAL_GPIO_Init)
    __arm_cp.0_11                            0x0800108c   Number         4  stm32f1xx_hal_gpio.o(.text.HAL_GPIO_Init)
    __arm_cp.0_12                            0x08001090   Number         4  stm32f1xx_hal_gpio.o(.text.HAL_GPIO_Init)
    [Anonymous Symbol]                       0x08001094   Section        0  stm32f1xx_hal_gpio.o(.text.HAL_GPIO_WritePin)
    [Anonymous Symbol]                       0x080010a0   Section        0  stm32f1xx_hal.o(.text.HAL_GetTick)
    [Anonymous Symbol]                       0x080010a8   Section        0  stm32f1xx_hal.o(.text.HAL_IncTick)
    __arm_cp.5_1                             0x080010b8   Number         4  stm32f1xx_hal.o(.text.HAL_IncTick)
    [Anonymous Symbol]                       0x080010bc   Section        0  stm32f1xx_hal.o(.text.HAL_Init)
    [Anonymous Symbol]                       0x080010dc   Section        0  stm32f1xx_hal.o(.text.HAL_InitTick)
    __arm_cp.1_0                             0x08001114   Number         4  stm32f1xx_hal.o(.text.HAL_InitTick)
    [Anonymous Symbol]                       0x08001118   Section        0  stm32f1xx_hal_msp.o(.text.HAL_MspInit)
    __arm_cp.0_0                             0x08001150   Number         4  stm32f1xx_hal_msp.o(.text.HAL_MspInit)
    __arm_cp.0_1                             0x08001154   Number         4  stm32f1xx_hal_msp.o(.text.HAL_MspInit)
    [Anonymous Symbol]                       0x08001158   Section        0  stm32f1xx_hal_cortex.o(.text.HAL_NVIC_EnableIRQ)
    __arm_cp.3_0                             0x08001170   Number         4  stm32f1xx_hal_cortex.o(.text.HAL_NVIC_EnableIRQ)
    [Anonymous Symbol]                       0x08001174   Section        0  stm32f1xx_hal_cortex.o(.text.HAL_NVIC_SetPriority)
    [Anonymous Symbol]                       0x080011ac   Section        0  stm32f1xx_hal_cortex.o(.text.HAL_NVIC_SetPriorityGrouping)
    __arm_cp.0_0                             0x080011c4   Number         4  stm32f1xx_hal_cortex.o(.text.HAL_NVIC_SetPriorityGrouping)
    __arm_cp.0_1                             0x080011c8   Number         4  stm32f1xx_hal_cortex.o(.text.HAL_NVIC_SetPriorityGrouping)
    [Anonymous Symbol]                       0x080011cc   Section        0  stm32f1xx_hal_rcc_ex.o(.text.HAL_RCCEx_PeriphCLKConfig)
    __arm_cp.0_1                             0x080012b4   Number         4  stm32f1xx_hal_rcc_ex.o(.text.HAL_RCCEx_PeriphCLKConfig)
    __arm_cp.0_2                             0x080012b8   Number         4  stm32f1xx_hal_rcc_ex.o(.text.HAL_RCCEx_PeriphCLKConfig)
    [Anonymous Symbol]                       0x080012bc   Section        0  stm32f1xx_hal_rcc.o(.text.HAL_RCC_ClockConfig)
    __arm_cp.2_0                             0x080013e8   Number         4  stm32f1xx_hal_rcc.o(.text.HAL_RCC_ClockConfig)
    __arm_cp.2_2                             0x080013ec   Number         4  stm32f1xx_hal_rcc.o(.text.HAL_RCC_ClockConfig)
    __arm_cp.2_4                             0x080013f0   Number         4  stm32f1xx_hal_rcc.o(.text.HAL_RCC_ClockConfig)
    [Anonymous Symbol]                       0x080013f4   Section        0  stm32f1xx_hal_rcc.o(.text.HAL_RCC_GetPCLK1Freq)
    [Anonymous Symbol]                       0x08001408   Section        0  stm32f1xx_hal_rcc.o(.text.HAL_RCC_GetPCLK2Freq)
    __arm_cp.9_0                             0x0800141c   Number         4  stm32f1xx_hal_rcc.o(.text.HAL_RCC_GetPCLK2Freq)
    __arm_cp.9_2                             0x08001420   Number         4  stm32f1xx_hal_rcc.o(.text.HAL_RCC_GetPCLK2Freq)
    [Anonymous Symbol]                       0x08001424   Section        0  stm32f1xx_hal_rcc.o(.text.HAL_RCC_GetSysClockFreq)
    __arm_cp.3_0                             0x08001458   Number         4  stm32f1xx_hal_rcc.o(.text.HAL_RCC_GetSysClockFreq)
    __arm_cp.3_1                             0x0800145c   Number         4  stm32f1xx_hal_rcc.o(.text.HAL_RCC_GetSysClockFreq)
    HAL_RCC_GetSysClockFreq.aPLLMULFactorTable 0x08001460   Number         0  stm32f1xx_hal_rcc.o(.text.HAL_RCC_GetSysClockFreq)
    HAL_RCC_GetSysClockFreq.aPredivFactorTable 0x08001470   Number         0  stm32f1xx_hal_rcc.o(.text.HAL_RCC_GetSysClockFreq)
    __arm_cp.3_4                             0x08001474   Number         4  stm32f1xx_hal_rcc.o(.text.HAL_RCC_GetSysClockFreq)
    [Anonymous Symbol]                       0x08001478   Section        0  stm32f1xx_hal_rcc.o(.text.HAL_RCC_OscConfig)
    __arm_cp.1_0                             0x0800179c   Number         4  stm32f1xx_hal_rcc.o(.text.HAL_RCC_OscConfig)
    __arm_cp.1_1                             0x080017a0   Number         4  stm32f1xx_hal_rcc.o(.text.HAL_RCC_OscConfig)
    __arm_cp.1_2                             0x080017a4   Number         4  stm32f1xx_hal_rcc.o(.text.HAL_RCC_OscConfig)
    __arm_cp.1_3                             0x080017a8   Number         4  stm32f1xx_hal_rcc.o(.text.HAL_RCC_OscConfig)
    [Anonymous Symbol]                       0x080017ac   Section        0  stm32f1xx_hal_cortex.o(.text.HAL_SYSTICK_Config)
    __arm_cp.7_0                             0x080017cc   Number         4  stm32f1xx_hal_cortex.o(.text.HAL_SYSTICK_Config)
    __arm_cp.7_1                             0x080017d0   Number         4  stm32f1xx_hal_cortex.o(.text.HAL_SYSTICK_Config)
    [Anonymous Symbol]                       0x080017d4   Section        0  stm32f1xx_hal_tim_ex.o(.text.HAL_TIMEx_ConfigBreakDeadTime)
    [Anonymous Symbol]                       0x08001824   Section        0  stm32f1xx_hal_tim_ex.o(.text.HAL_TIMEx_MasterConfigSynchronization)
    [Anonymous Symbol]                       0x08001880   Section        0  stm32f1xx_hal_tim.o(.text.HAL_TIM_Base_Init)
    [Anonymous Symbol]                       0x080018d8   Section        0  tim.o(.text.HAL_TIM_Base_MspInit)
    [Anonymous Symbol]                       0x08001934   Section        0  stm32f1xx_hal_tim.o(.text.HAL_TIM_Base_Start)
    __arm_cp.5_0                             0x08001978   Number         4  stm32f1xx_hal_tim.o(.text.HAL_TIM_Base_Start)
    __arm_cp.5_2                             0x0800197c   Number         4  stm32f1xx_hal_tim.o(.text.HAL_TIM_Base_Start)
    [Anonymous Symbol]                       0x08001980   Section        0  stm32f1xx_hal_tim.o(.text.HAL_TIM_ConfigClockSource)
    [Anonymous Symbol]                       0x08001a78   Section        0  tim.o(.text.HAL_TIM_MspPostInit)
    __arm_cp.1_0                             0x08001b20   Number         4  tim.o(.text.HAL_TIM_MspPostInit)
    __arm_cp.1_1                             0x08001b24   Number         4  tim.o(.text.HAL_TIM_MspPostInit)
    __arm_cp.1_2                             0x08001b28   Number         4  tim.o(.text.HAL_TIM_MspPostInit)
    __arm_cp.1_3                             0x08001b2c   Number         4  tim.o(.text.HAL_TIM_MspPostInit)
    __arm_cp.1_4                             0x08001b30   Number         4  tim.o(.text.HAL_TIM_MspPostInit)
    [Anonymous Symbol]                       0x08001b34   Section        0  stm32f1xx_hal_tim.o(.text.HAL_TIM_PWM_ConfigChannel)
    [Anonymous Symbol]                       0x08001bcc   Section        0  stm32f1xx_hal_tim.o(.text.HAL_TIM_PWM_Init)
    [Anonymous Symbol]                       0x08001c24   Section        0  stm32f1xx_hal_tim.o(.text.HAL_TIM_PWM_MspInit)
    [Anonymous Symbol]                       0x08001c28   Section        0  stm32f1xx_hal_tim.o(.text.HAL_TIM_PWM_Start)
    __arm_cp.31_0                            0x08001cb8   Number         4  stm32f1xx_hal_tim.o(.text.HAL_TIM_PWM_Start)
    __arm_cp.31_1                            0x08001cbc   Number         4  stm32f1xx_hal_tim.o(.text.HAL_TIM_PWM_Start)
    __arm_cp.31_2                            0x08001cc0   Number         4  stm32f1xx_hal_tim.o(.text.HAL_TIM_PWM_Start)
    [Anonymous Symbol]                       0x08001cc4   Section        0  stm32f1xx_hal_uart.o(.text.HAL_UARTEx_RxEventCallback)
    [Anonymous Symbol]                       0x08001cc6   Section        0  stm32f1xx_hal_uart.o(.text.HAL_UART_ErrorCallback)
    [Anonymous Symbol]                       0x08001cc8   Section        0  stm32f1xx_hal_uart.o(.text.HAL_UART_IRQHandler)
    __arm_cp.42_0                            0x08001f58   Number         4  stm32f1xx_hal_uart.o(.text.HAL_UART_IRQHandler)
    [Anonymous Symbol]                       0x08001f5c   Section        0  stm32f1xx_hal_uart.o(.text.HAL_UART_Init)
    [Anonymous Symbol]                       0x08001fbc   Section        0  usart.o(.text.HAL_UART_MspInit)
    __arm_cp.1_0                             0x08002098   Number         4  usart.o(.text.HAL_UART_MspInit)
    __arm_cp.1_3                             0x0800209c   Number         4  usart.o(.text.HAL_UART_MspInit)
    __arm_cp.1_4                             0x080020a0   Number         4  usart.o(.text.HAL_UART_MspInit)
    __arm_cp.1_5                             0x080020a4   Number         4  usart.o(.text.HAL_UART_MspInit)
    __arm_cp.1_6                             0x080020a8   Number         4  usart.o(.text.HAL_UART_MspInit)
    [Anonymous Symbol]                       0x080020ac   Section        0  stm32f1xx_hal_uart.o(.text.HAL_UART_RxCpltCallback)
    [Anonymous Symbol]                       0x080020b0   Section        0  stm32f1xx_hal_uart.o(.text.HAL_UART_Transmit_DMA)
    __arm_cp.14_0                            0x08002114   Number         4  stm32f1xx_hal_uart.o(.text.HAL_UART_Transmit_DMA)
    __arm_cp.14_1                            0x08002118   Number         4  stm32f1xx_hal_uart.o(.text.HAL_UART_Transmit_DMA)
    __arm_cp.14_2                            0x0800211c   Number         4  stm32f1xx_hal_uart.o(.text.HAL_UART_Transmit_DMA)
    [Anonymous Symbol]                       0x08002120   Section        0  stm32f1xx_hal_uart.o(.text.HAL_UART_TxCpltCallback)
    [Anonymous Symbol]                       0x08002122   Section        0  stm32f1xx_hal_uart.o(.text.HAL_UART_TxHalfCpltCallback)
    [Anonymous Symbol]                       0x08002124   Section        0  stm32f1xx_it.o(.text.HardFault_Handler)
    [Anonymous Symbol]                       0x08002128   Section        0  adc.o(.text.MX_ADC1_Init)
    __arm_cp.0_0                             0x08002198   Number         4  adc.o(.text.MX_ADC1_Init)
    __arm_cp.0_1                             0x0800219c   Number         4  adc.o(.text.MX_ADC1_Init)
    [Anonymous Symbol]                       0x080021a0   Section        0  dma.o(.text.MX_DMA_Init)
    __arm_cp.0_0                             0x080021e4   Number         4  dma.o(.text.MX_DMA_Init)
    __arm_cp.0_1                             0x080021e8   Number         4  dma.o(.text.MX_DMA_Init)
    __arm_cp.0_2                             0x080021ec   Number         4  dma.o(.text.MX_DMA_Init)
    [Anonymous Symbol]                       0x080021f0   Section        0  gpio.o(.text.MX_GPIO_Init)
    __arm_cp.0_0                             0x080022b4   Number         4  gpio.o(.text.MX_GPIO_Init)
    __arm_cp.0_1                             0x080022b8   Number         4  gpio.o(.text.MX_GPIO_Init)
    __arm_cp.0_2                             0x080022bc   Number         4  gpio.o(.text.MX_GPIO_Init)
    __arm_cp.0_3                             0x080022c0   Number         4  gpio.o(.text.MX_GPIO_Init)
    __arm_cp.0_4                             0x080022c4   Number         4  gpio.o(.text.MX_GPIO_Init)
    [Anonymous Symbol]                       0x080022c8   Section        0  tim.o(.text.MX_TIM1_Init)
    __arm_cp.0_0                             0x080023bc   Number         4  tim.o(.text.MX_TIM1_Init)
    [Anonymous Symbol]                       0x080023c0   Section        0  tim.o(.text.MX_TIM2_Init)
    __arm_cp.2_0                             0x08002484   Number         4  tim.o(.text.MX_TIM2_Init)
    [Anonymous Symbol]                       0x08002488   Section        0  tim.o(.text.MX_TIM3_Init)
    __arm_cp.3_0                             0x080024ec   Number         4  tim.o(.text.MX_TIM3_Init)
    [Anonymous Symbol]                       0x080024f0   Section        0  usart.o(.text.MX_USART1_UART_Init)
    __arm_cp.0_0                             0x0800251c   Number         4  usart.o(.text.MX_USART1_UART_Init)
    __arm_cp.0_1                             0x08002520   Number         4  usart.o(.text.MX_USART1_UART_Init)
    __arm_cp.0_2                             0x08002524   Number         4  usart.o(.text.MX_USART1_UART_Init)
    [Anonymous Symbol]                       0x08002528   Section        0  stm32f1xx_it.o(.text.MemManage_Handler)
    [Anonymous Symbol]                       0x0800252a   Section        0  stm32f1xx_it.o(.text.NMI_Handler)
    [Anonymous Symbol]                       0x0800252c   Section        0  stm32f1xx_it.o(.text.PendSV_Handler)
    [Anonymous Symbol]                       0x0800252e   Section        0  stm32f1xx_it.o(.text.SVC_Handler)
    [Anonymous Symbol]                       0x08002530   Section        0  stm32f1xx_it.o(.text.SysTick_Handler)
    [Anonymous Symbol]                       0x08002534   Section        0  main.o(.text.SystemClock_Config)
    [Anonymous Symbol]                       0x080025ba   Section        0  system_stm32f1xx.o(.text.SystemInit)
    [Anonymous Symbol]                       0x080025bc   Section        0  stm32f1xx_hal_tim.o(.text.TIM_Base_SetConfig)
    __arm_cp.2_1                             0x08002620   Number         4  stm32f1xx_hal_tim.o(.text.TIM_Base_SetConfig)
    __arm_cp.2_2                             0x08002624   Number         4  stm32f1xx_hal_tim.o(.text.TIM_Base_SetConfig)
    [Anonymous Symbol]                       0x08002628   Section        0  stm32f1xx_hal_tim.o(.text.TIM_CCxChannelCmd)
    TIM_OC1_SetConfig                        0x08002649   Thumb Code    80  stm32f1xx_hal_tim.o(.text.TIM_OC1_SetConfig)
    [Anonymous Symbol]                       0x08002648   Section        0  stm32f1xx_hal_tim.o(.text.TIM_OC1_SetConfig)
    __arm_cp.74_0                            0x08002694   Number         4  stm32f1xx_hal_tim.o(.text.TIM_OC1_SetConfig)
    [Anonymous Symbol]                       0x08002698   Section        0  stm32f1xx_hal_tim.o(.text.TIM_OC2_SetConfig)
    TIM_OC3_SetConfig                        0x080026f1   Thumb Code    84  stm32f1xx_hal_tim.o(.text.TIM_OC3_SetConfig)
    [Anonymous Symbol]                       0x080026f0   Section        0  stm32f1xx_hal_tim.o(.text.TIM_OC3_SetConfig)
    TIM_OC4_SetConfig                        0x08002745   Thumb Code    68  stm32f1xx_hal_tim.o(.text.TIM_OC4_SetConfig)
    [Anonymous Symbol]                       0x08002744   Section        0  stm32f1xx_hal_tim.o(.text.TIM_OC4_SetConfig)
    __arm_cp.77_0                            0x08002784   Number         4  stm32f1xx_hal_tim.o(.text.TIM_OC4_SetConfig)
    TIM_TI1_ConfigInputStage                 0x08002789   Thumb Code    34  stm32f1xx_hal_tim.o(.text.TIM_TI1_ConfigInputStage)
    [Anonymous Symbol]                       0x08002788   Section        0  stm32f1xx_hal_tim.o(.text.TIM_TI1_ConfigInputStage)
    TIM_TI2_ConfigInputStage                 0x080027ab   Thumb Code    36  stm32f1xx_hal_tim.o(.text.TIM_TI2_ConfigInputStage)
    [Anonymous Symbol]                       0x080027aa   Section        0  stm32f1xx_hal_tim.o(.text.TIM_TI2_ConfigInputStage)
    UART_DMAAbortOnError                     0x080027cf   Thumb Code    12  stm32f1xx_hal_uart.o(.text.UART_DMAAbortOnError)
    [Anonymous Symbol]                       0x080027ce   Section        0  stm32f1xx_hal_uart.o(.text.UART_DMAAbortOnError)
    UART_DMAError                            0x080027db   Thumb Code    78  stm32f1xx_hal_uart.o(.text.UART_DMAError)
    [Anonymous Symbol]                       0x080027da   Section        0  stm32f1xx_hal_uart.o(.text.UART_DMAError)
    UART_DMATransmitCplt                     0x08002829   Thumb Code    60  stm32f1xx_hal_uart.o(.text.UART_DMATransmitCplt)
    [Anonymous Symbol]                       0x08002828   Section        0  stm32f1xx_hal_uart.o(.text.UART_DMATransmitCplt)
    UART_DMATxHalfCplt                       0x08002865   Thumb Code     6  stm32f1xx_hal_uart.o(.text.UART_DMATxHalfCplt)
    [Anonymous Symbol]                       0x08002864   Section        0  stm32f1xx_hal_uart.o(.text.UART_DMATxHalfCplt)
    UART_EndRxTransfer                       0x0800286b   Thumb Code    78  stm32f1xx_hal_uart.o(.text.UART_EndRxTransfer)
    [Anonymous Symbol]                       0x0800286a   Section        0  stm32f1xx_hal_uart.o(.text.UART_EndRxTransfer)
    UART_EndTxTransfer                       0x080028b9   Thumb Code    28  stm32f1xx_hal_uart.o(.text.UART_EndTxTransfer)
    [Anonymous Symbol]                       0x080028b8   Section        0  stm32f1xx_hal_uart.o(.text.UART_EndTxTransfer)
    UART_Receive_IT                          0x080028d5   Thumb Code   196  stm32f1xx_hal_uart.o(.text.UART_Receive_IT)
    [Anonymous Symbol]                       0x080028d4   Section        0  stm32f1xx_hal_uart.o(.text.UART_Receive_IT)
    UART_SetConfig                           0x08002999   Thumb Code   128  stm32f1xx_hal_uart.o(.text.UART_SetConfig)
    [Anonymous Symbol]                       0x08002998   Section        0  stm32f1xx_hal_uart.o(.text.UART_SetConfig)
    __arm_cp.2_0                             0x08002a14   Number         4  stm32f1xx_hal_uart.o(.text.UART_SetConfig)
    [Anonymous Symbol]                       0x08002a18   Section        0  stm32f1xx_it.o(.text.USART1_IRQHandler)
    __arm_cp.13_0                            0x08002a20   Number         4  stm32f1xx_it.o(.text.USART1_IRQHandler)
    [Anonymous Symbol]                       0x08002a24   Section        0  stm32f1xx_it.o(.text.UsageFault_Handler)
    __NVIC_SetPriority                       0x08002a29   Thumb Code    36  stm32f1xx_hal_cortex.o(.text.__NVIC_SetPriority)
    [Anonymous Symbol]                       0x08002a28   Section        0  stm32f1xx_hal_cortex.o(.text.__NVIC_SetPriority)
    __arm_cp.2_0                             0x08002a44   Number         4  stm32f1xx_hal_cortex.o(.text.__NVIC_SetPriority)
    __arm_cp.2_1                             0x08002a48   Number         4  stm32f1xx_hal_cortex.o(.text.__NVIC_SetPriority)
    [Anonymous Symbol]                       0x08002a4c   Section        0  main.o(.text.main)
    __arm_cp.0_0                             0x08002b38   Number         4  main.o(.text.main)
    __arm_cp.0_1                             0x08002b3c   Number         4  main.o(.text.main)
    __arm_cp.0_2                             0x08002b40   Number         4  main.o(.text.main)
    __arm_cp.0_3                             0x08002b44   Number         4  main.o(.text.main)
    __arm_cp.0_4                             0x08002b48   Number         4  main.o(.text.main)
    __arm_cp.0_5                             0x08002b4c   Number         4  main.o(.text.main)
    __arm_cp.0_6                             0x08002b50   Number         4  main.o(.text.main)
    __arm_cp.0_7                             0x08002b54   Number         4  main.o(.text.main)
    [Anonymous Symbol]                       0x08002b58   Section        0  maglev_plate.o(.text.mp_init)
    __arm_cp.1_0                             0x08002bb8   Number         4  maglev_plate.o(.text.mp_init)
    __arm_cp.1_1                             0x08002bbc   Number         4  maglev_plate.o(.text.mp_init)
    __arm_cp.1_2                             0x08002bc0   Number         4  maglev_plate.o(.text.mp_init)
    __arm_cp.1_4                             0x08002bc4   Number         4  maglev_plate.o(.text.mp_init)
    [Anonymous Symbol]                       0x08002bc8   Section        0  maglev_plate.o(.text.mp_set_output)
    __arm_cp.2_0                             0x08002c1c   Number         4  maglev_plate.o(.text.mp_set_output)
    __arm_cp.2_1                             0x08002c20   Number         4  maglev_plate.o(.text.mp_set_output)
    [Anonymous Symbol]                       0x08002c24   Section        0  maglev_plate.o(.text.pid_calc)
    i.__ARM_fpclassify                       0x08002cd0   Section        0  fpclassify.o(i.__ARM_fpclassify)
    i.__ieee754_rem_pio2                     0x08002cf8   Section        0  rred.o(i.__ieee754_rem_pio2)
    i.__kernel_cos                           0x08003080   Section        0  cos_i.o(i.__kernel_cos)
    i.__kernel_poly                          0x0800317c   Section        0  poly.o(i.__kernel_poly)
    i.__kernel_sin                           0x08003228   Section        0  sin_i.o(i.__kernel_sin)
    i.__mathlib_dbl_infnan                   0x08003314   Section        0  dunder.o(i.__mathlib_dbl_infnan)
    i.__mathlib_dbl_invalid                  0x0800331a   Section        0  dunder.o(i.__mathlib_dbl_invalid)
    i.__mathlib_dbl_underflow                0x08003328   Section        0  dunder.o(i.__mathlib_dbl_underflow)
    i.cos                                    0x08003338   Section        0  cos.o(i.cos)
    i.sin                                    0x080033d4   Section        0  sin.o(i.sin)
    x$fpl$d2f                                0x08003474   Section       98  d2f.o(x$fpl$d2f)
    x$fpl$dadd                               0x080034d8   Section      336  daddsub_clz.o(x$fpl$dadd)
    _dadd1                                   0x080034e9   Thumb Code     0  daddsub_clz.o(x$fpl$dadd)
    x$fpl$dcheck1                            0x08003628   Section       16  dcheck1.o(x$fpl$dcheck1)
    x$fpl$dcmpinf                            0x08003638   Section       24  dcmpi.o(x$fpl$dcmpinf)
    x$fpl$ddiv                               0x08003650   Section      688  ddiv.o(x$fpl$ddiv)
    ddiv_entry                               0x08003657   Thumb Code     0  ddiv.o(x$fpl$ddiv)
    x$fpl$deqf                               0x08003900   Section      120  deqf.o(x$fpl$deqf)
    x$fpl$dfix                               0x08003978   Section       94  dfix.o(x$fpl$dfix)
    x$fpl$dflt                               0x080039d6   Section       46  dflt_clz.o(x$fpl$dflt)
    x$fpl$dfltu                              0x08003a04   Section       38  dflt_clz.o(x$fpl$dfltu)
    x$fpl$dgeqf                              0x08003a2c   Section      120  dgeqf.o(x$fpl$dgeqf)
    x$fpl$dleqf                              0x08003aa4   Section      120  dleqf.o(x$fpl$dleqf)
    x$fpl$dmul                               0x08003b1c   Section      340  dmul.o(x$fpl$dmul)
    x$fpl$dnaninf                            0x08003c70   Section      156  dnaninf.o(x$fpl$dnaninf)
    x$fpl$dretinf                            0x08003d0c   Section       12  dretinf.o(x$fpl$dretinf)
    x$fpl$drsb                               0x08003d18   Section       22  daddsub_clz.o(x$fpl$drsb)
    x$fpl$dsub                               0x08003d30   Section      468  daddsub_clz.o(x$fpl$dsub)
    _dsub1                                   0x08003d41   Thumb Code     0  daddsub_clz.o(x$fpl$dsub)
    x$fpl$f2d                                0x08003f04   Section       86  f2d.o(x$fpl$f2d)
    x$fpl$fadd                               0x08003f5c   Section      196  faddsub_clz.o(x$fpl$fadd)
    _fadd1                                   0x08003f6b   Thumb Code     0  faddsub_clz.o(x$fpl$fadd)
    x$fpl$fcmp                               0x08004020   Section       84  dcmp.o(x$fpl$fcmp)
    x$fpl$fcmp                               0x08004074   Section       84  fcmp.o(x$fpl$fcmp)
    x$fpl$fcmpinf                            0x080040c8   Section       24  fcmpi.o(x$fpl$fcmpinf)
    x$fpl$feqf                               0x080040e0   Section      104  feqf.o(x$fpl$feqf)
    x$fpl$ffix                               0x08004148   Section       54  ffix.o(x$fpl$ffix)
    x$fpl$fflt                               0x08004180   Section       48  fflt_clz.o(x$fpl$fflt)
    x$fpl$fgeqf                              0x080041b0   Section      104  fgeqf.o(x$fpl$fgeqf)
    x$fpl$fleqf                              0x08004218   Section      104  fleqf.o(x$fpl$fleqf)
    x$fpl$fmul                               0x08004280   Section      258  fmul.o(x$fpl$fmul)
    x$fpl$fnaninf                            0x08004382   Section      140  fnaninf.o(x$fpl$fnaninf)
    x$fpl$fretinf                            0x0800440e   Section       10  fretinf.o(x$fpl$fretinf)
    x$fpl$fsub                               0x08004418   Section      234  faddsub_clz.o(x$fpl$fsub)
    _fsub1                                   0x08004427   Thumb Code     0  faddsub_clz.o(x$fpl$fsub)
    x$fpl$retnan                             0x08004502   Section      100  retnan.o(x$fpl$retnan)
    x$fpl$scalbn                             0x08004566   Section       92  scalbn.o(x$fpl$scalbn)
    x$fpl$trapveneer                         0x080045c2   Section       48  trapv.o(x$fpl$trapveneer)
    x$fpl$usenofp                            0x080045f2   Section        0  usenofp.o(x$fpl$usenofp)
    C                                        0x080045f8   Data          48  cos_i.o(.constdata)
    .constdata                               0x080045f8   Section       48  cos_i.o(.constdata)
    pio2s                                    0x08004628   Data          48  rred.o(.constdata)
    .constdata                               0x08004628   Section      204  rred.o(.constdata)
    twooverpi                                0x08004658   Data         156  rred.o(.constdata)
    S                                        0x080046f8   Data          40  sin_i.o(.constdata)
    .constdata                               0x080046f8   Section       40  sin_i.o(.constdata)
    [Anonymous Symbol]                       0x20000000   Section        0  maglev_plate.o(.data..L_MergedGlobals)
    [Anonymous Symbol]                       0x20000044   Section        0  main.o(.data..L_MergedGlobals)
    [Anonymous Symbol]                       0x20000054   Section        0  stm32f1xx_hal.o(.data..L_MergedGlobals)
    .bss                                     0x20000060   Section       96  libspace.o(.bss)
    [Anonymous Symbol]                       0x200000c0   Section        0  maglev_plate.o(.bss..L_MergedGlobals.1)
    Heap_Mem                                 0x20000350   Data         512  startup_stm32f103xb.o(HEAP)
    HEAP                                     0x20000350   Section      512  startup_stm32f103xb.o(HEAP)
    Stack_Mem                                0x20000550   Data        1024  startup_stm32f103xb.o(STACK)
    STACK                                    0x20000550   Section     1024  startup_stm32f103xb.o(STACK)
    __initial_sp                             0x20000950   Data           0  startup_stm32f103xb.o(STACK)

    Global Symbols

    Symbol Name                              Value     Ov Type        Size  Object(Section)

    BuildAttributes$$THM_ISAv4$P$D$K$B$S$PE$A:L22UL41UL21$X:L11$S22US41US21$IEEE1$IW$~IW$USESV6$~STKCKD$USESV7$~SHL$OTIME$ROPI$IEEEX$EBA8$UX$STANDARDLIB$REQ8$PRES8$EABIv2 0x00000000   Number         0  anon$$obj.o ABSOLUTE
    __fp_init_empty                          0x00000000   Number         0  fpinit_empty.o ABSOLUTE
    __ARM_exceptions_init                     - Undefined Weak Reference
    __alloca_initialize                       - Undefined Weak Reference
    __arm_preinit_                            - Undefined Weak Reference
    __cpp_initialize__aeabi_                  - Undefined Weak Reference
    __cxa_finalize                            - Undefined Weak Reference
    __rt_locale                               - Undefined Weak Reference
    __sigvec_lookup                           - Undefined Weak Reference
    _atexit_init                              - Undefined Weak Reference
    _call_atexit_fns                          - Undefined Weak Reference
    _clock_init                               - Undefined Weak Reference
    _fp_trap_init                             - Undefined Weak Reference
    _fp_trap_shutdown                         - Undefined Weak Reference
    _get_lc_collate                           - Undefined Weak Reference
    _get_lc_ctype                             - Undefined Weak Reference
    _get_lc_monetary                          - Undefined Weak Reference
    _get_lc_numeric                           - Undefined Weak Reference
    _get_lc_time                              - Undefined Weak Reference
    _getenv_init                              - Undefined Weak Reference
    _handle_redirection                       - Undefined Weak Reference
    _init_alloc                               - Undefined Weak Reference
    _init_user_alloc                          - Undefined Weak Reference
    _initio                                   - Undefined Weak Reference
    _printf_post_padding                      - Undefined Weak Reference
    _printf_pre_padding                       - Undefined Weak Reference
    _printf_truncate_signed                   - Undefined Weak Reference
    _printf_truncate_unsigned                 - Undefined Weak Reference
    _rand_init                                - Undefined Weak Reference
    _signal_finish                            - Undefined Weak Reference
    _signal_init                              - Undefined Weak Reference
    _terminate_alloc                          - Undefined Weak Reference
    _terminate_user_alloc                     - Undefined Weak Reference
    _terminateio                              - Undefined Weak Reference
    __Vectors_Size                           0x000000ec   Number         0  startup_stm32f103xb.o ABSOLUTE
    __Vectors                                0x08000000   Data           4  startup_stm32f103xb.o(RESET)
    __Vectors_End                            0x080000ec   Data           0  startup_stm32f103xb.o(RESET)
    __main                                   0x080000ed   Thumb Code     8  __main.o(!!!main)
    __scatterload                            0x080000f5   Thumb Code     0  __scatter.o(!!!scatter)
    __scatterload_rt2                        0x080000f5   Thumb Code    44  __scatter.o(!!!scatter)
    __scatterload_rt2_thumb_only             0x080000f5   Thumb Code     0  __scatter.o(!!!scatter)
    __scatterload_null                       0x08000103   Thumb Code     0  __scatter.o(!!!scatter)
    __scatterload_copy                       0x08000129   Thumb Code    26  __scatter_copy.o(!!handler_copy)
    __scatterload_zeroinit                   0x08000145   Thumb Code    28  __scatter_zi.o(!!handler_zi)
    _printf_d                                0x08000161   Thumb Code     0  _printf_d.o(.ARM.Collect$$_printf_percent$$00000009)
    _printf_percent                          0x08000161   Thumb Code     0  _printf_percent.o(.ARM.Collect$$_printf_percent$$00000000)
    _printf_percent_end                      0x08000167   Thumb Code     0  _printf_percent_end.o(.ARM.Collect$$_printf_percent$$00000017)
    __rt_lib_init                            0x0800016b   Thumb Code     0  libinit.o(.ARM.Collect$$libinit$$00000000)
    __rt_lib_init_alloca_1                   0x0800016d   Thumb Code     0  libinit2.o(.ARM.Collect$$libinit$$0000002E)
    __rt_lib_init_argv_1                     0x0800016d   Thumb Code     0  libinit2.o(.ARM.Collect$$libinit$$0000002C)
    __rt_lib_init_atexit_1                   0x0800016d   Thumb Code     0  libinit2.o(.ARM.Collect$$libinit$$0000001B)
    __rt_lib_init_clock_1                    0x0800016d   Thumb Code     0  libinit2.o(.ARM.Collect$$libinit$$00000021)
    __rt_lib_init_cpp_1                      0x0800016d   Thumb Code     0  libinit2.o(.ARM.Collect$$libinit$$00000032)
    __rt_lib_init_exceptions_1               0x0800016d   Thumb Code     0  libinit2.o(.ARM.Collect$$libinit$$00000030)
    __rt_lib_init_fp_1                       0x0800016d   Thumb Code     0  libinit2.o(.ARM.Collect$$libinit$$00000002)
    __rt_lib_init_fp_trap_1                  0x0800016d   Thumb Code     0  libinit2.o(.ARM.Collect$$libinit$$0000001F)
    __rt_lib_init_getenv_1                   0x0800016d   Thumb Code     0  libinit2.o(.ARM.Collect$$libinit$$00000023)
    __rt_lib_init_heap_1                     0x0800016d   Thumb Code     0  libinit2.o(.ARM.Collect$$libinit$$0000000A)
    __rt_lib_init_lc_collate_1               0x0800016d   Thumb Code     0  libinit2.o(.ARM.Collect$$libinit$$00000011)
    __rt_lib_init_lc_ctype_1                 0x0800016d   Thumb Code     0  libinit2.o(.ARM.Collect$$libinit$$00000013)
    __rt_lib_init_lc_monetary_1              0x0800016d   Thumb Code     0  libinit2.o(.ARM.Collect$$libinit$$00000015)
    __rt_lib_init_lc_numeric_1               0x0800016d   Thumb Code     0  libinit2.o(.ARM.Collect$$libinit$$00000017)
    __rt_lib_init_lc_time_1                  0x0800016d   Thumb Code     0  libinit2.o(.ARM.Collect$$libinit$$00000019)
    __rt_lib_init_preinit_1                  0x0800016d   Thumb Code     0  libinit2.o(.ARM.Collect$$libinit$$00000004)
    __rt_lib_init_rand_1                     0x0800016d   Thumb Code     0  libinit2.o(.ARM.Collect$$libinit$$0000000E)
    __rt_lib_init_return                     0x0800016d   Thumb Code     0  libinit2.o(.ARM.Collect$$libinit$$00000033)
    __rt_lib_init_signal_1                   0x0800016d   Thumb Code     0  libinit2.o(.ARM.Collect$$libinit$$0000001D)
    __rt_lib_init_stdio_1                    0x0800016d   Thumb Code     0  libinit2.o(.ARM.Collect$$libinit$$00000025)
    __rt_lib_init_user_alloc_1               0x0800016d   Thumb Code     0  libinit2.o(.ARM.Collect$$libinit$$0000000C)
    __rt_lib_shutdown                        0x0800016f   Thumb Code     0  libshutdown.o(.ARM.Collect$$libshutdown$$00000000)
    __rt_lib_shutdown_cpp_1                  0x08000171   Thumb Code     0  libshutdown2.o(.ARM.Collect$$libshutdown$$00000002)
    __rt_lib_shutdown_fp_trap_1              0x08000171   Thumb Code     0  libshutdown2.o(.ARM.Collect$$libshutdown$$00000007)
    __rt_lib_shutdown_heap_1                 0x08000171   Thumb Code     0  libshutdown2.o(.ARM.Collect$$libshutdown$$0000000F)
    __rt_lib_shutdown_return                 0x08000171   Thumb Code     0  libshutdown2.o(.ARM.Collect$$libshutdown$$00000010)
    __rt_lib_shutdown_signal_1               0x08000171   Thumb Code     0  libshutdown2.o(.ARM.Collect$$libshutdown$$0000000A)
    __rt_lib_shutdown_stdio_1                0x08000171   Thumb Code     0  libshutdown2.o(.ARM.Collect$$libshutdown$$00000004)
    __rt_lib_shutdown_user_alloc_1           0x08000171   Thumb Code     0  libshutdown2.o(.ARM.Collect$$libshutdown$$0000000C)
    __rt_entry                               0x08000173   Thumb Code     0  __rtentry.o(.ARM.Collect$$rtentry$$00000000)
    __rt_entry_presh_1                       0x08000173   Thumb Code     0  __rtentry2.o(.ARM.Collect$$rtentry$$00000002)
    __rt_entry_sh                            0x08000173   Thumb Code     0  __rtentry4.o(.ARM.Collect$$rtentry$$00000004)
    __rt_entry_li                            0x08000179   Thumb Code     0  __rtentry2.o(.ARM.Collect$$rtentry$$0000000A)
    __rt_entry_postsh_1                      0x08000179   Thumb Code     0  __rtentry2.o(.ARM.Collect$$rtentry$$00000009)
    __rt_entry_main                          0x0800017d   Thumb Code     0  __rtentry2.o(.ARM.Collect$$rtentry$$0000000D)
    __rt_entry_postli_1                      0x0800017d   Thumb Code     0  __rtentry2.o(.ARM.Collect$$rtentry$$0000000C)
    __rt_exit                                0x08000185   Thumb Code     0  rtexit.o(.ARM.Collect$$rtexit$$00000000)
    __rt_exit_ls                             0x08000187   Thumb Code     0  rtexit2.o(.ARM.Collect$$rtexit$$00000003)
    __rt_exit_prels_1                        0x08000187   Thumb Code     0  rtexit2.o(.ARM.Collect$$rtexit$$00000002)
    __rt_exit_exit                           0x0800018b   Thumb Code     0  rtexit2.o(.ARM.Collect$$rtexit$$00000004)
    Reset_Handler                            0x08000191   Thumb Code     8  startup_stm32f103xb.o(.text)
    CAN1_RX1_IRQHandler                      0x080001ab   Thumb Code     0  startup_stm32f103xb.o(.text)
    CAN1_SCE_IRQHandler                      0x080001ab   Thumb Code     0  startup_stm32f103xb.o(.text)
    DMA1_Channel2_IRQHandler                 0x080001ab   Thumb Code     0  startup_stm32f103xb.o(.text)
    DMA1_Channel3_IRQHandler                 0x080001ab   Thumb Code     0  startup_stm32f103xb.o(.text)
    DMA1_Channel6_IRQHandler                 0x080001ab   Thumb Code     0  startup_stm32f103xb.o(.text)
    DMA1_Channel7_IRQHandler                 0x080001ab   Thumb Code     0  startup_stm32f103xb.o(.text)
    EXTI0_IRQHandler                         0x080001ab   Thumb Code     0  startup_stm32f103xb.o(.text)
    EXTI15_10_IRQHandler                     0x080001ab   Thumb Code     0  startup_stm32f103xb.o(.text)
    EXTI1_IRQHandler                         0x080001ab   Thumb Code     0  startup_stm32f103xb.o(.text)
    EXTI2_IRQHandler                         0x080001ab   Thumb Code     0  startup_stm32f103xb.o(.text)
    EXTI3_IRQHandler                         0x080001ab   Thumb Code     0  startup_stm32f103xb.o(.text)
    EXTI4_IRQHandler                         0x080001ab   Thumb Code     0  startup_stm32f103xb.o(.text)
    EXTI9_5_IRQHandler                       0x080001ab   Thumb Code     0  startup_stm32f103xb.o(.text)
    FLASH_IRQHandler                         0x080001ab   Thumb Code     0  startup_stm32f103xb.o(.text)
    I2C1_ER_IRQHandler                       0x080001ab   Thumb Code     0  startup_stm32f103xb.o(.text)
    I2C1_EV_IRQHandler                       0x080001ab   Thumb Code     0  startup_stm32f103xb.o(.text)
    I2C2_ER_IRQHandler                       0x080001ab   Thumb Code     0  startup_stm32f103xb.o(.text)
    I2C2_EV_IRQHandler                       0x080001ab   Thumb Code     0  startup_stm32f103xb.o(.text)
    PVD_IRQHandler                           0x080001ab   Thumb Code     0  startup_stm32f103xb.o(.text)
    RCC_IRQHandler                           0x080001ab   Thumb Code     0  startup_stm32f103xb.o(.text)
    RTC_Alarm_IRQHandler                     0x080001ab   Thumb Code     0  startup_stm32f103xb.o(.text)
    RTC_IRQHandler                           0x080001ab   Thumb Code     0  startup_stm32f103xb.o(.text)
    SPI1_IRQHandler                          0x080001ab   Thumb Code     0  startup_stm32f103xb.o(.text)
    SPI2_IRQHandler                          0x080001ab   Thumb Code     0  startup_stm32f103xb.o(.text)
    TAMPER_IRQHandler                        0x080001ab   Thumb Code     0  startup_stm32f103xb.o(.text)
    TIM1_BRK_IRQHandler                      0x080001ab   Thumb Code     0  startup_stm32f103xb.o(.text)
    TIM1_CC_IRQHandler                       0x080001ab   Thumb Code     0  startup_stm32f103xb.o(.text)
    TIM1_TRG_COM_IRQHandler                  0x080001ab   Thumb Code     0  startup_stm32f103xb.o(.text)
    TIM1_UP_IRQHandler                       0x080001ab   Thumb Code     0  startup_stm32f103xb.o(.text)
    TIM2_IRQHandler                          0x080001ab   Thumb Code     0  startup_stm32f103xb.o(.text)
    TIM3_IRQHandler                          0x080001ab   Thumb Code     0  startup_stm32f103xb.o(.text)
    TIM4_IRQHandler                          0x080001ab   Thumb Code     0  startup_stm32f103xb.o(.text)
    USART2_IRQHandler                        0x080001ab   Thumb Code     0  startup_stm32f103xb.o(.text)
    USART3_IRQHandler                        0x080001ab   Thumb Code     0  startup_stm32f103xb.o(.text)
    USBWakeUp_IRQHandler                     0x080001ab   Thumb Code     0  startup_stm32f103xb.o(.text)
    USB_HP_CAN1_TX_IRQHandler                0x080001ab   Thumb Code     0  startup_stm32f103xb.o(.text)
    USB_LP_CAN1_RX0_IRQHandler               0x080001ab   Thumb Code     0  startup_stm32f103xb.o(.text)
    WWDG_IRQHandler                          0x080001ab   Thumb Code     0  startup_stm32f103xb.o(.text)
    __user_initial_stackheap                 0x080001ad   Thumb Code     0  startup_stm32f103xb.o(.text)
    __2sprintf                               0x080001d1   Thumb Code    34  noretval__2sprintf.o(.text)
    __printf                                 0x080001f9   Thumb Code   104  __printf.o(.text)
    _printf_int_dec                          0x08000261   Thumb Code   104  _printf_dec.o(.text)
    strlen                                   0x080002d9   Thumb Code    62  strlen.o(.text)
    __aeabi_memclr4                          0x08000317   Thumb Code     0  rt_memclr_w.o(.text)
    __aeabi_memclr8                          0x08000317   Thumb Code     0  rt_memclr_w.o(.text)
    __rt_memclr_w                            0x08000317   Thumb Code    78  rt_memclr_w.o(.text)
    _memset_w                                0x0800031b   Thumb Code     0  rt_memclr_w.o(.text)
    __use_two_region_memory                  0x08000365   Thumb Code     2  heapauxi.o(.text)
    __rt_heap_escrow$2region                 0x08000367   Thumb Code     2  heapauxi.o(.text)
    __rt_heap_expand$2region                 0x08000369   Thumb Code     2  heapauxi.o(.text)
    __read_errno                             0x0800036b   Thumb Code    10  _rserrno.o(.text)
    __set_errno                              0x08000375   Thumb Code    12  _rserrno.o(.text)
    _printf_int_common                       0x08000381   Thumb Code   178  _printf_intcommon.o(.text)
    _printf_char_common                      0x0800043f   Thumb Code    32  _printf_char_common.o(.text)
    _sputc                                   0x08000465   Thumb Code    10  _sputc.o(.text)
    __aeabi_errno_addr                       0x08000471   Thumb Code     8  rt_errno_addr_intlibspace.o(.text)
    __errno$intlibspace                      0x08000471   Thumb Code     0  rt_errno_addr_intlibspace.o(.text)
    __rt_errno_addr$intlibspace              0x08000471   Thumb Code     0  rt_errno_addr_intlibspace.o(.text)
    __user_libspace                          0x08000479   Thumb Code     8  libspace.o(.text)
    __user_perproc_libspace                  0x08000479   Thumb Code     0  libspace.o(.text)
    __user_perthread_libspace                0x08000479   Thumb Code     0  libspace.o(.text)
    __user_setup_stackheap                   0x08000481   Thumb Code    74  sys_stackheap_outer.o(.text)
    exit                                     0x080004cb   Thumb Code    18  exit.o(.text)
    _sys_exit                                0x080004dd   Thumb Code     8  sys_exit.o(.text)
    __I$use$semihosting                      0x080004e9   Thumb Code     0  use_no_semi.o(.text)
    __use_no_semihosting_swi                 0x080004e9   Thumb Code     2  use_no_semi.o(.text)
    __semihosting_library_function           0x080004eb   Thumb Code     0  indicate_semi.o(.text)
    ADC1_2_IRQHandler                        0x080004ed   Thumb Code    12  stm32f1xx_it.o(.text.ADC1_2_IRQHandler)
    ADC_ConversionStop_Disable               0x080004f9   Thumb Code    76  stm32f1xx_hal_adc.o(.text.ADC_ConversionStop_Disable)
    ADC_DMAConvCplt                          0x08000545   Thumb Code    76  stm32f1xx_hal_adc.o(.text.ADC_DMAConvCplt)
    ADC_DMAError                             0x08000591   Thumb Code    22  stm32f1xx_hal_adc.o(.text.ADC_DMAError)
    ADC_DMAHalfConvCplt                      0x080005a7   Thumb Code     6  stm32f1xx_hal_adc.o(.text.ADC_DMAHalfConvCplt)
    ADC_Enable                               0x080005ad   Thumb Code   108  stm32f1xx_hal_adc.o(.text.ADC_Enable)
    BusFault_Handler                         0x08000619   Thumb Code     2  stm32f1xx_it.o(.text.BusFault_Handler)
    DMA1_Channel1_IRQHandler                 0x0800061d   Thumb Code    12  stm32f1xx_it.o(.text.DMA1_Channel1_IRQHandler)
    DMA1_Channel4_IRQHandler                 0x08000629   Thumb Code    12  stm32f1xx_it.o(.text.DMA1_Channel4_IRQHandler)
    DMA1_Channel5_IRQHandler                 0x08000635   Thumb Code    12  stm32f1xx_it.o(.text.DMA1_Channel5_IRQHandler)
    DebugMon_Handler                         0x08000667   Thumb Code     2  stm32f1xx_it.o(.text.DebugMon_Handler)
    Error_Handler                            0x08000669   Thumb Code     8  main.o(.text.Error_Handler)
    HAL_ADCEx_InjectedConvCpltCallback       0x08000671   Thumb Code     2  stm32f1xx_hal_adc_ex.o(.text.HAL_ADCEx_InjectedConvCpltCallback)
    HAL_ADC_ConfigChannel                    0x08000675   Thumb Code   276  stm32f1xx_hal_adc.o(.text.HAL_ADC_ConfigChannel)
    HAL_ADC_ConvCpltCallback                 0x08000789   Thumb Code   212  maglev_plate.o(.text.HAL_ADC_ConvCpltCallback)
    HAL_ADC_ConvHalfCpltCallback             0x0800085d   Thumb Code     2  stm32f1xx_hal_adc.o(.text.HAL_ADC_ConvHalfCpltCallback)
    HAL_ADC_ErrorCallback                    0x0800085f   Thumb Code     2  stm32f1xx_hal_adc.o(.text.HAL_ADC_ErrorCallback)
    HAL_ADC_IRQHandler                       0x08000861   Thumb Code   236  stm32f1xx_hal_adc.o(.text.HAL_ADC_IRQHandler)
    HAL_ADC_Init                             0x0800094d   Thumb Code   272  stm32f1xx_hal_adc.o(.text.HAL_ADC_Init)
    HAL_ADC_LevelOutOfWindowCallback         0x08000a5d   Thumb Code     2  stm32f1xx_hal_adc.o(.text.HAL_ADC_LevelOutOfWindowCallback)
    HAL_ADC_MspInit                          0x08000a61   Thumb Code   164  adc.o(.text.HAL_ADC_MspInit)
    HAL_ADC_Start_DMA                        0x08000b05   Thumb Code   256  stm32f1xx_hal_adc.o(.text.HAL_ADC_Start_DMA)
    HAL_DMA_Abort                            0x08000c05   Thumb Code    64  stm32f1xx_hal_dma.o(.text.HAL_DMA_Abort)
    HAL_DMA_Abort_IT                         0x08000c45   Thumb Code   136  stm32f1xx_hal_dma.o(.text.HAL_DMA_Abort_IT)
    HAL_DMA_IRQHandler                       0x08000ccd   Thumb Code   312  stm32f1xx_hal_dma.o(.text.HAL_DMA_IRQHandler)
    HAL_DMA_Init                             0x08000e05   Thumb Code   108  stm32f1xx_hal_dma.o(.text.HAL_DMA_Init)
    HAL_DMA_Start_IT                         0x08000e71   Thumb Code   102  stm32f1xx_hal_dma.o(.text.HAL_DMA_Start_IT)
    HAL_Delay                                0x08000ed9   Thumb Code    32  stm32f1xx_hal.o(.text.HAL_Delay)
    HAL_GPIO_Init                            0x08000ef9   Thumb Code   412  stm32f1xx_hal_gpio.o(.text.HAL_GPIO_Init)
    HAL_GPIO_WritePin                        0x08001095   Thumb Code    10  stm32f1xx_hal_gpio.o(.text.HAL_GPIO_WritePin)
    HAL_GetTick                              0x080010a1   Thumb Code     8  stm32f1xx_hal.o(.text.HAL_GetTick)
    HAL_IncTick                              0x080010a9   Thumb Code    20  stm32f1xx_hal.o(.text.HAL_IncTick)
    HAL_Init                                 0x080010bd   Thumb Code    32  stm32f1xx_hal.o(.text.HAL_Init)
    HAL_InitTick                             0x080010dd   Thumb Code    60  stm32f1xx_hal.o(.text.HAL_InitTick)
    HAL_MspInit                              0x08001119   Thumb Code    64  stm32f1xx_hal_msp.o(.text.HAL_MspInit)
    HAL_NVIC_EnableIRQ                       0x08001159   Thumb Code    28  stm32f1xx_hal_cortex.o(.text.HAL_NVIC_EnableIRQ)
    HAL_NVIC_SetPriority                     0x08001175   Thumb Code    56  stm32f1xx_hal_cortex.o(.text.HAL_NVIC_SetPriority)
    HAL_NVIC_SetPriorityGrouping             0x080011ad   Thumb Code    32  stm32f1xx_hal_cortex.o(.text.HAL_NVIC_SetPriorityGrouping)
    HAL_RCCEx_PeriphCLKConfig                0x080011cd   Thumb Code   240  stm32f1xx_hal_rcc_ex.o(.text.HAL_RCCEx_PeriphCLKConfig)
    HAL_RCC_ClockConfig                      0x080012bd   Thumb Code   312  stm32f1xx_hal_rcc.o(.text.HAL_RCC_ClockConfig)
    HAL_RCC_GetPCLK1Freq                     0x080013f5   Thumb Code    20  stm32f1xx_hal_rcc.o(.text.HAL_RCC_GetPCLK1Freq)
    HAL_RCC_GetPCLK2Freq                     0x08001409   Thumb Code    28  stm32f1xx_hal_rcc.o(.text.HAL_RCC_GetPCLK2Freq)
    HAL_RCC_GetSysClockFreq                  0x08001425   Thumb Code    84  stm32f1xx_hal_rcc.o(.text.HAL_RCC_GetSysClockFreq)
    HAL_RCC_OscConfig                        0x08001479   Thumb Code   820  stm32f1xx_hal_rcc.o(.text.HAL_RCC_OscConfig)
    HAL_SYSTICK_Config                       0x080017ad   Thumb Code    40  stm32f1xx_hal_cortex.o(.text.HAL_SYSTICK_Config)
    HAL_TIMEx_ConfigBreakDeadTime            0x080017d5   Thumb Code    78  stm32f1xx_hal_tim_ex.o(.text.HAL_TIMEx_ConfigBreakDeadTime)
    HAL_TIMEx_MasterConfigSynchronization    0x08001825   Thumb Code    92  stm32f1xx_hal_tim_ex.o(.text.HAL_TIMEx_MasterConfigSynchronization)
    HAL_TIM_Base_Init                        0x08001881   Thumb Code    88  stm32f1xx_hal_tim.o(.text.HAL_TIM_Base_Init)
    HAL_TIM_Base_MspInit                     0x080018d9   Thumb Code    92  tim.o(.text.HAL_TIM_Base_MspInit)
    HAL_TIM_Base_Start                       0x08001935   Thumb Code    76  stm32f1xx_hal_tim.o(.text.HAL_TIM_Base_Start)
    HAL_TIM_ConfigClockSource                0x08001981   Thumb Code   246  stm32f1xx_hal_tim.o(.text.HAL_TIM_ConfigClockSource)
    HAL_TIM_MspPostInit                      0x08001a79   Thumb Code   188  tim.o(.text.HAL_TIM_MspPostInit)
    HAL_TIM_PWM_ConfigChannel                0x08001b35   Thumb Code   152  stm32f1xx_hal_tim.o(.text.HAL_TIM_PWM_ConfigChannel)
    HAL_TIM_PWM_Init                         0x08001bcd   Thumb Code    88  stm32f1xx_hal_tim.o(.text.HAL_TIM_PWM_Init)
    HAL_TIM_PWM_MspInit                      0x08001c25   Thumb Code     2  stm32f1xx_hal_tim.o(.text.HAL_TIM_PWM_MspInit)
    HAL_TIM_PWM_Start                        0x08001c29   Thumb Code   156  stm32f1xx_hal_tim.o(.text.HAL_TIM_PWM_Start)
    HAL_UARTEx_RxEventCallback               0x08001cc5   Thumb Code     2  stm32f1xx_hal_uart.o(.text.HAL_UARTEx_RxEventCallback)
    HAL_UART_ErrorCallback                   0x08001cc7   Thumb Code     2  stm32f1xx_hal_uart.o(.text.HAL_UART_ErrorCallback)
    HAL_UART_IRQHandler                      0x08001cc9   Thumb Code   660  stm32f1xx_hal_uart.o(.text.HAL_UART_IRQHandler)
    HAL_UART_Init                            0x08001f5d   Thumb Code    94  stm32f1xx_hal_uart.o(.text.HAL_UART_Init)
    HAL_UART_MspInit                         0x08001fbd   Thumb Code   240  usart.o(.text.HAL_UART_MspInit)
    HAL_UART_RxCpltCallback                  0x080020ad   Thumb Code     2  stm32f1xx_hal_uart.o(.text.HAL_UART_RxCpltCallback)
    HAL_UART_Transmit_DMA                    0x080020b1   Thumb Code   112  stm32f1xx_hal_uart.o(.text.HAL_UART_Transmit_DMA)
    HAL_UART_TxCpltCallback                  0x08002121   Thumb Code     2  stm32f1xx_hal_uart.o(.text.HAL_UART_TxCpltCallback)
    HAL_UART_TxHalfCpltCallback              0x08002123   Thumb Code     2  stm32f1xx_hal_uart.o(.text.HAL_UART_TxHalfCpltCallback)
    HardFault_Handler                        0x08002125   Thumb Code     2  stm32f1xx_it.o(.text.HardFault_Handler)
    MX_ADC1_Init                             0x08002129   Thumb Code   120  adc.o(.text.MX_ADC1_Init)
    MX_DMA_Init                              0x080021a1   Thumb Code    80  dma.o(.text.MX_DMA_Init)
    MX_GPIO_Init                             0x080021f1   Thumb Code   216  gpio.o(.text.MX_GPIO_Init)
    MX_TIM1_Init                             0x080022c9   Thumb Code   248  tim.o(.text.MX_TIM1_Init)
    MX_TIM2_Init                             0x080023c1   Thumb Code   200  tim.o(.text.MX_TIM2_Init)
    MX_TIM3_Init                             0x08002489   Thumb Code   104  tim.o(.text.MX_TIM3_Init)
    MX_USART1_UART_Init                      0x080024f1   Thumb Code    56  usart.o(.text.MX_USART1_UART_Init)
    MemManage_Handler                        0x08002529   Thumb Code     2  stm32f1xx_it.o(.text.MemManage_Handler)
    NMI_Handler                              0x0800252b   Thumb Code     2  stm32f1xx_it.o(.text.NMI_Handler)
    PendSV_Handler                           0x0800252d   Thumb Code     2  stm32f1xx_it.o(.text.PendSV_Handler)
    SVC_Handler                              0x0800252f   Thumb Code     2  stm32f1xx_it.o(.text.SVC_Handler)
    SysTick_Handler                          0x08002531   Thumb Code     4  stm32f1xx_it.o(.text.SysTick_Handler)
    SystemClock_Config                       0x08002535   Thumb Code   134  main.o(.text.SystemClock_Config)
    SystemInit                               0x080025bb   Thumb Code     2  system_stm32f1xx.o(.text.SystemInit)
    TIM_Base_SetConfig                       0x080025bd   Thumb Code   108  stm32f1xx_hal_tim.o(.text.TIM_Base_SetConfig)
    TIM_CCxChannelCmd                        0x08002629   Thumb Code    30  stm32f1xx_hal_tim.o(.text.TIM_CCxChannelCmd)
    TIM_OC2_SetConfig                        0x08002699   Thumb Code    88  stm32f1xx_hal_tim.o(.text.TIM_OC2_SetConfig)
    USART1_IRQHandler                        0x08002a19   Thumb Code    12  stm32f1xx_it.o(.text.USART1_IRQHandler)
    UsageFault_Handler                       0x08002a25   Thumb Code     2  stm32f1xx_it.o(.text.UsageFault_Handler)
    main                                     0x08002a4d   Thumb Code   268  main.o(.text.main)
    mp_init                                  0x08002b59   Thumb Code   112  maglev_plate.o(.text.mp_init)
    mp_set_output                            0x08002bc9   Thumb Code    92  maglev_plate.o(.text.mp_set_output)
    pid_calc                                 0x08002c25   Thumb Code   172  maglev_plate.o(.text.pid_calc)
    __ARM_fpclassify                         0x08002cd1   Thumb Code    40  fpclassify.o(i.__ARM_fpclassify)
    __ieee754_rem_pio2                       0x08002cf9   Thumb Code   828  rred.o(i.__ieee754_rem_pio2)
    __kernel_cos                             0x08003081   Thumb Code   230  cos_i.o(i.__kernel_cos)
    __kernel_poly                            0x0800317d   Thumb Code   170  poly.o(i.__kernel_poly)
    __kernel_sin                             0x08003229   Thumb Code   224  sin_i.o(i.__kernel_sin)
    __mathlib_dbl_infnan                     0x08003315   Thumb Code     6  dunder.o(i.__mathlib_dbl_infnan)
    __mathlib_dbl_invalid                    0x0800331b   Thumb Code    12  dunder.o(i.__mathlib_dbl_invalid)
    __mathlib_dbl_underflow                  0x08003329   Thumb Code    10  dunder.o(i.__mathlib_dbl_underflow)
    cos                                      0x08003339   Thumb Code   148  cos.o(i.cos)
    sin                                      0x080033d5   Thumb Code   150  sin.o(i.sin)
    __aeabi_d2f                              0x08003475   Thumb Code     0  d2f.o(x$fpl$d2f)
    _d2f                                     0x08003475   Thumb Code    98  d2f.o(x$fpl$d2f)
    __aeabi_dadd                             0x080034d9   Thumb Code     0  daddsub_clz.o(x$fpl$dadd)
    _dadd                                    0x080034d9   Thumb Code   332  daddsub_clz.o(x$fpl$dadd)
    __fpl_dcheck_NaN1                        0x08003629   Thumb Code    10  dcheck1.o(x$fpl$dcheck1)
    __fpl_dcmp_Inf                           0x08003639   Thumb Code    24  dcmpi.o(x$fpl$dcmpinf)
    __aeabi_ddiv                             0x08003651   Thumb Code     0  ddiv.o(x$fpl$ddiv)
    _ddiv                                    0x08003651   Thumb Code   552  ddiv.o(x$fpl$ddiv)
    __aeabi_cdcmpeq                          0x08003901   Thumb Code     0  deqf.o(x$fpl$deqf)
    _dcmpeq                                  0x08003901   Thumb Code   120  deqf.o(x$fpl$deqf)
    __aeabi_d2iz                             0x08003979   Thumb Code     0  dfix.o(x$fpl$dfix)
    _dfix                                    0x08003979   Thumb Code    94  dfix.o(x$fpl$dfix)
    __aeabi_i2d                              0x080039d7   Thumb Code     0  dflt_clz.o(x$fpl$dflt)
    _dflt                                    0x080039d7   Thumb Code    46  dflt_clz.o(x$fpl$dflt)
    __aeabi_ui2d                             0x08003a05   Thumb Code     0  dflt_clz.o(x$fpl$dfltu)
    _dfltu                                   0x08003a05   Thumb Code    38  dflt_clz.o(x$fpl$dfltu)
    __aeabi_cdcmpge                          0x08003a2d   Thumb Code     0  dgeqf.o(x$fpl$dgeqf)
    _dcmpge                                  0x08003a2d   Thumb Code   120  dgeqf.o(x$fpl$dgeqf)
    __aeabi_cdcmple                          0x08003aa5   Thumb Code     0  dleqf.o(x$fpl$dleqf)
    _dcmple                                  0x08003aa5   Thumb Code   120  dleqf.o(x$fpl$dleqf)
    __fpl_dcmple_InfNaN                      0x08003b07   Thumb Code     0  dleqf.o(x$fpl$dleqf)
    __aeabi_dmul                             0x08003b1d   Thumb Code     0  dmul.o(x$fpl$dmul)
    _dmul                                    0x08003b1d   Thumb Code   332  dmul.o(x$fpl$dmul)
    __fpl_dnaninf                            0x08003c71   Thumb Code   156  dnaninf.o(x$fpl$dnaninf)
    __fpl_dretinf                            0x08003d0d   Thumb Code    12  dretinf.o(x$fpl$dretinf)
    __aeabi_drsub                            0x08003d19   Thumb Code     0  daddsub_clz.o(x$fpl$drsb)
    _drsb                                    0x08003d19   Thumb Code    22  daddsub_clz.o(x$fpl$drsb)
    __aeabi_dsub                             0x08003d31   Thumb Code     0  daddsub_clz.o(x$fpl$dsub)
    _dsub                                    0x08003d31   Thumb Code   464  daddsub_clz.o(x$fpl$dsub)
    __aeabi_f2d                              0x08003f05   Thumb Code     0  f2d.o(x$fpl$f2d)
    _f2d                                     0x08003f05   Thumb Code    86  f2d.o(x$fpl$f2d)
    __aeabi_fadd                             0x08003f5d   Thumb Code     0  faddsub_clz.o(x$fpl$fadd)
    _fadd                                    0x08003f5d   Thumb Code   196  faddsub_clz.o(x$fpl$fadd)
    __aeabi_dcmpeq                           0x08004021   Thumb Code     0  dcmp.o(x$fpl$fcmp)
    _deq                                     0x08004021   Thumb Code    14  dcmp.o(x$fpl$fcmp)
    _dneq                                    0x0800402f   Thumb Code    14  dcmp.o(x$fpl$fcmp)
    __aeabi_dcmpgt                           0x0800403d   Thumb Code     0  dcmp.o(x$fpl$fcmp)
    _dgr                                     0x0800403d   Thumb Code    14  dcmp.o(x$fpl$fcmp)
    __aeabi_dcmpge                           0x0800404b   Thumb Code     0  dcmp.o(x$fpl$fcmp)
    _dgeq                                    0x0800404b   Thumb Code    14  dcmp.o(x$fpl$fcmp)
    __aeabi_dcmple                           0x08004059   Thumb Code     0  dcmp.o(x$fpl$fcmp)
    _dleq                                    0x08004059   Thumb Code    14  dcmp.o(x$fpl$fcmp)
    __aeabi_dcmplt                           0x08004067   Thumb Code     0  dcmp.o(x$fpl$fcmp)
    _dls                                     0x08004067   Thumb Code    14  dcmp.o(x$fpl$fcmp)
    __aeabi_fcmpeq                           0x08004075   Thumb Code     0  fcmp.o(x$fpl$fcmp)
    _feq                                     0x08004075   Thumb Code    14  fcmp.o(x$fpl$fcmp)
    _fneq                                    0x08004083   Thumb Code    14  fcmp.o(x$fpl$fcmp)
    __aeabi_fcmpgt                           0x08004091   Thumb Code     0  fcmp.o(x$fpl$fcmp)
    _fgr                                     0x08004091   Thumb Code    14  fcmp.o(x$fpl$fcmp)
    __aeabi_fcmpge                           0x0800409f   Thumb Code     0  fcmp.o(x$fpl$fcmp)
    _fgeq                                    0x0800409f   Thumb Code    14  fcmp.o(x$fpl$fcmp)
    __aeabi_fcmple                           0x080040ad   Thumb Code     0  fcmp.o(x$fpl$fcmp)
    _fleq                                    0x080040ad   Thumb Code    14  fcmp.o(x$fpl$fcmp)
    __aeabi_fcmplt                           0x080040bb   Thumb Code     0  fcmp.o(x$fpl$fcmp)
    _fls                                     0x080040bb   Thumb Code    14  fcmp.o(x$fpl$fcmp)
    __fpl_fcmp_Inf                           0x080040c9   Thumb Code    24  fcmpi.o(x$fpl$fcmpinf)
    __aeabi_cfcmpeq                          0x080040e1   Thumb Code     0  feqf.o(x$fpl$feqf)
    _fcmpeq                                  0x080040e1   Thumb Code   104  feqf.o(x$fpl$feqf)
    __aeabi_f2iz                             0x08004149   Thumb Code     0  ffix.o(x$fpl$ffix)
    _ffix                                    0x08004149   Thumb Code    54  ffix.o(x$fpl$ffix)
    __aeabi_i2f                              0x08004181   Thumb Code     0  fflt_clz.o(x$fpl$fflt)
    _fflt                                    0x08004181   Thumb Code    48  fflt_clz.o(x$fpl$fflt)
    _fcmpge                                  0x080041b1   Thumb Code   104  fgeqf.o(x$fpl$fgeqf)
    __aeabi_cfcmple                          0x08004219   Thumb Code     0  fleqf.o(x$fpl$fleqf)
    _fcmple                                  0x08004219   Thumb Code   104  fleqf.o(x$fpl$fleqf)
    __fpl_fcmple_InfNaN                      0x0800426b   Thumb Code     0  fleqf.o(x$fpl$fleqf)
    __aeabi_fmul                             0x08004281   Thumb Code     0  fmul.o(x$fpl$fmul)
    _fmul                                    0x08004281   Thumb Code   258  fmul.o(x$fpl$fmul)
    __fpl_fnaninf                            0x08004383   Thumb Code   140  fnaninf.o(x$fpl$fnaninf)
    __fpl_fretinf                            0x0800440f   Thumb Code    10  fretinf.o(x$fpl$fretinf)
    __aeabi_fsub                             0x08004419   Thumb Code     0  faddsub_clz.o(x$fpl$fsub)
    _fsub                                    0x08004419   Thumb Code   234  faddsub_clz.o(x$fpl$fsub)
    __fpl_return_NaN                         0x08004503   Thumb Code   100  retnan.o(x$fpl$retnan)
    __ARM_scalbn                             0x08004567   Thumb Code    92  scalbn.o(x$fpl$scalbn)
    __fpl_cmpreturn                          0x080045c3   Thumb Code    48  trapv.o(x$fpl$trapveneer)
    __I$use$fp                               0x080045f2   Number         0  usenofp.o(x$fpl$usenofp)
    AHBPrescTable                            0x08004720   Data          16  system_stm32f1xx.o(.rodata.AHBPrescTable)
    APBPrescTable                            0x08004730   Data           8  system_stm32f1xx.o(.rodata.APBPrescTable)
    Region$$Table$$Base                      0x08004738   Number         0  anon$$obj.o(Region$$Table)
    Region$$Table$$Limit                     0x08004758   Number         0  anon$$obj.o(Region$$Table)
    target_x                                 0x20000000   Data           2  maglev_plate.o(.data..L_MergedGlobals)
    target_y                                 0x20000002   Data           2  maglev_plate.o(.data..L_MergedGlobals)
    pid_x                                    0x20000004   Data          32  maglev_plate.o(.data..L_MergedGlobals)
    pid_y                                    0x20000024   Data          32  maglev_plate.o(.data..L_MergedGlobals)
    A                                        0x20000044   Data           4  main.o(.data..L_MergedGlobals)
    Cx                                       0x20000048   Data           4  main.o(.data..L_MergedGlobals)
    Cy                                       0x2000004c   Data           4  main.o(.data..L_MergedGlobals)
    delay_time                               0x20000050   Data           4  main.o(.data..L_MergedGlobals)
    uwTickFreq                               0x20000054   Data           1  stm32f1xx_hal.o(.data..L_MergedGlobals)
    uwTickPrio                               0x20000058   Data           4  stm32f1xx_hal.o(.data..L_MergedGlobals)
    SystemCoreClock                          0x2000005c   Data           4  system_stm32f1xx.o(.data.SystemCoreClock)
    __libspace_start                         0x20000060   Data          96  libspace.o(.bss)
    __temporary_stack_top$libspace           0x200000c0   Data           0  libspace.o(.bss)
    adc_value                                0x200000c0   Data           6  maglev_plate.o(.bss..L_MergedGlobals.1)
    uart_tx_buffer                           0x200000c6   Data         100  maglev_plate.o(.bss..L_MergedGlobals.1)
    hadc1                                    0x2000012c   Data          48  adc.o(.bss.hadc1)
    hdma_adc1                                0x2000015c   Data          68  adc.o(.bss.hdma_adc1)
    hdma_usart1_rx                           0x200001a0   Data          68  usart.o(.bss.hdma_usart1_rx)
    hdma_usart1_tx                           0x200001e4   Data          68  usart.o(.bss.hdma_usart1_tx)
    htim1                                    0x20000228   Data          72  tim.o(.bss.htim1)
    htim2                                    0x20000270   Data          72  tim.o(.bss.htim2)
    htim3                                    0x200002b8   Data          72  tim.o(.bss.htim3)
    huart1                                   0x20000300   Data          72  usart.o(.bss.huart1)
    theta                                    0x20000348   Data           4  main.o(.bss.theta)
    uwTick                                   0x2000034c   Data           4  stm32f1xx_hal.o(.bss.uwTick)



==============================================================================

Memory Map of the image

  Image Entry point : 0x080000ed

  Load Region LR_IROM1 (Base: 0x08000000, Size: 0x000047b8, Max: 0x00010000, ABSOLUTE)

    Execution Region ER_IROM1 (Exec base: 0x08000000, Load base: 0x08000000, Size: 0x00004758, Max: 0x00010000, ABSOLUTE)

    Exec Addr    Load Addr    Size         Type   Attr      Idx    E Section Name        Object

    0x08000000   0x08000000   0x000000ec   Data   RO            3    RESET               startup_stm32f103xb.o
    0x080000ec   0x080000ec   0x00000008   Code   RO         1130  * !!!main             c_w.l(__main.o)
    0x080000f4   0x080000f4   0x00000034   Code   RO         1438    !!!scatter          c_w.l(__scatter.o)
    0x08000128   0x08000128   0x0000001a   Code   RO         1440    !!handler_copy      c_w.l(__scatter_copy.o)
    0x08000142   0x08000142   0x00000002   PAD
    0x08000144   0x08000144   0x0000001c   Code   RO         1442    !!handler_zi        c_w.l(__scatter_zi.o)
    0x08000160   0x08000160   0x00000000   Code   RO         1123    .ARM.Collect$$_printf_percent$$00000000  c_w.l(_printf_percent.o)
    0x08000160   0x08000160   0x00000006   Code   RO         1122    .ARM.Collect$$_printf_percent$$00000009  c_w.l(_printf_d.o)
    0x08000166   0x08000166   0x00000004   Code   RO         1195    .ARM.Collect$$_printf_percent$$00000017  c_w.l(_printf_percent_end.o)
    0x0800016a   0x0800016a   0x00000002   Code   RO         1299    .ARM.Collect$$libinit$$00000000  c_w.l(libinit.o)
    0x0800016c   0x0800016c   0x00000000   Code   RO         1305    .ARM.Collect$$libinit$$00000002  c_w.l(libinit2.o)
    0x0800016c   0x0800016c   0x00000000   Code   RO         1307    .ARM.Collect$$libinit$$00000004  c_w.l(libinit2.o)
    0x0800016c   0x0800016c   0x00000000   Code   RO         1310    .ARM.Collect$$libinit$$0000000A  c_w.l(libinit2.o)
    0x0800016c   0x0800016c   0x00000000   Code   RO         1312    .ARM.Collect$$libinit$$0000000C  c_w.l(libinit2.o)
    0x0800016c   0x0800016c   0x00000000   Code   RO         1314    .ARM.Collect$$libinit$$0000000E  c_w.l(libinit2.o)
    0x0800016c   0x0800016c   0x00000000   Code   RO         1317    .ARM.Collect$$libinit$$00000011  c_w.l(libinit2.o)
    0x0800016c   0x0800016c   0x00000000   Code   RO         1319    .ARM.Collect$$libinit$$00000013  c_w.l(libinit2.o)
    0x0800016c   0x0800016c   0x00000000   Code   RO         1321    .ARM.Collect$$libinit$$00000015  c_w.l(libinit2.o)
    0x0800016c   0x0800016c   0x00000000   Code   RO         1323    .ARM.Collect$$libinit$$00000017  c_w.l(libinit2.o)
    0x0800016c   0x0800016c   0x00000000   Code   RO         1325    .ARM.Collect$$libinit$$00000019  c_w.l(libinit2.o)
    0x0800016c   0x0800016c   0x00000000   Code   RO         1327    .ARM.Collect$$libinit$$0000001B  c_w.l(libinit2.o)
    0x0800016c   0x0800016c   0x00000000   Code   RO         1329    .ARM.Collect$$libinit$$0000001D  c_w.l(libinit2.o)
    0x0800016c   0x0800016c   0x00000000   Code   RO         1331    .ARM.Collect$$libinit$$0000001F  c_w.l(libinit2.o)
    0x0800016c   0x0800016c   0x00000000   Code   RO         1333    .ARM.Collect$$libinit$$00000021  c_w.l(libinit2.o)
    0x0800016c   0x0800016c   0x00000000   Code   RO         1335    .ARM.Collect$$libinit$$00000023  c_w.l(libinit2.o)
    0x0800016c   0x0800016c   0x00000000   Code   RO         1337    .ARM.Collect$$libinit$$00000025  c_w.l(libinit2.o)
    0x0800016c   0x0800016c   0x00000000   Code   RO         1341    .ARM.Collect$$libinit$$0000002C  c_w.l(libinit2.o)
    0x0800016c   0x0800016c   0x00000000   Code   RO         1343    .ARM.Collect$$libinit$$0000002E  c_w.l(libinit2.o)
    0x0800016c   0x0800016c   0x00000000   Code   RO         1345    .ARM.Collect$$libinit$$00000030  c_w.l(libinit2.o)
    0x0800016c   0x0800016c   0x00000000   Code   RO         1347    .ARM.Collect$$libinit$$00000032  c_w.l(libinit2.o)
    0x0800016c   0x0800016c   0x00000002   Code   RO         1348    .ARM.Collect$$libinit$$00000033  c_w.l(libinit2.o)
    0x0800016e   0x0800016e   0x00000002   Code   RO         1374    .ARM.Collect$$libshutdown$$00000000  c_w.l(libshutdown.o)
    0x08000170   0x08000170   0x00000000   Code   RO         1389    .ARM.Collect$$libshutdown$$00000002  c_w.l(libshutdown2.o)
    0x08000170   0x08000170   0x00000000   Code   RO         1391    .ARM.Collect$$libshutdown$$00000004  c_w.l(libshutdown2.o)
    0x08000170   0x08000170   0x00000000   Code   RO         1394    .ARM.Collect$$libshutdown$$00000007  c_w.l(libshutdown2.o)
    0x08000170   0x08000170   0x00000000   Code   RO         1397    .ARM.Collect$$libshutdown$$0000000A  c_w.l(libshutdown2.o)
    0x08000170   0x08000170   0x00000000   Code   RO         1399    .ARM.Collect$$libshutdown$$0000000C  c_w.l(libshutdown2.o)
    0x08000170   0x08000170   0x00000000   Code   RO         1402    .ARM.Collect$$libshutdown$$0000000F  c_w.l(libshutdown2.o)
    0x08000170   0x08000170   0x00000002   Code   RO         1403    .ARM.Collect$$libshutdown$$00000010  c_w.l(libshutdown2.o)
    0x08000172   0x08000172   0x00000000   Code   RO         1186    .ARM.Collect$$rtentry$$00000000  c_w.l(__rtentry.o)
    0x08000172   0x08000172   0x00000000   Code   RO         1246    .ARM.Collect$$rtentry$$00000002  c_w.l(__rtentry2.o)
    0x08000172   0x08000172   0x00000006   Code   RO         1258    .ARM.Collect$$rtentry$$00000004  c_w.l(__rtentry4.o)
    0x08000178   0x08000178   0x00000000   Code   RO         1248    .ARM.Collect$$rtentry$$00000009  c_w.l(__rtentry2.o)
    0x08000178   0x08000178   0x00000004   Code   RO         1249    .ARM.Collect$$rtentry$$0000000A  c_w.l(__rtentry2.o)
    0x0800017c   0x0800017c   0x00000000   Code   RO         1251    .ARM.Collect$$rtentry$$0000000C  c_w.l(__rtentry2.o)
    0x0800017c   0x0800017c   0x00000008   Code   RO         1252    .ARM.Collect$$rtentry$$0000000D  c_w.l(__rtentry2.o)
    0x08000184   0x08000184   0x00000002   Code   RO         1302    .ARM.Collect$$rtexit$$00000000  c_w.l(rtexit.o)
    0x08000186   0x08000186   0x00000000   Code   RO         1352    .ARM.Collect$$rtexit$$00000002  c_w.l(rtexit2.o)
    0x08000186   0x08000186   0x00000004   Code   RO         1353    .ARM.Collect$$rtexit$$00000003  c_w.l(rtexit2.o)
    0x0800018a   0x0800018a   0x00000006   Code   RO         1354    .ARM.Collect$$rtexit$$00000004  c_w.l(rtexit2.o)
    0x08000190   0x08000190   0x00000040   Code   RO            4    .text               startup_stm32f103xb.o
    0x080001d0   0x080001d0   0x00000028   Code   RO         1096    .text               c_w.l(noretval__2sprintf.o)
    0x080001f8   0x080001f8   0x00000068   Code   RO         1098    .text               c_w.l(__printf.o)
    0x08000260   0x08000260   0x00000078   Code   RO         1100    .text               c_w.l(_printf_dec.o)
    0x080002d8   0x080002d8   0x0000003e   Code   RO         1124    .text               c_w.l(strlen.o)
    0x08000316   0x08000316   0x0000004e   Code   RO         1126    .text               c_w.l(rt_memclr_w.o)
    0x08000364   0x08000364   0x00000006   Code   RO         1128    .text               c_w.l(heapauxi.o)
    0x0800036a   0x0800036a   0x00000016   Code   RO         1187    .text               c_w.l(_rserrno.o)
    0x08000380   0x08000380   0x000000b2   Code   RO         1189    .text               c_w.l(_printf_intcommon.o)
    0x08000432   0x08000432   0x00000002   PAD
    0x08000434   0x08000434   0x00000030   Code   RO         1191    .text               c_w.l(_printf_char_common.o)
    0x08000464   0x08000464   0x0000000a   Code   RO         1193    .text               c_w.l(_sputc.o)
    0x0800046e   0x0800046e   0x00000002   PAD
    0x08000470   0x08000470   0x00000008   Code   RO         1263    .text               c_w.l(rt_errno_addr_intlibspace.o)
    0x08000478   0x08000478   0x00000008   Code   RO         1287    .text               c_w.l(libspace.o)
    0x08000480   0x08000480   0x0000004a   Code   RO         1290    .text               c_w.l(sys_stackheap_outer.o)
    0x080004ca   0x080004ca   0x00000012   Code   RO         1292    .text               c_w.l(exit.o)
    0x080004dc   0x080004dc   0x0000000c   Code   RO         1364    .text               c_w.l(sys_exit.o)
    0x080004e8   0x080004e8   0x00000002   Code   RO         1379    .text               c_w.l(use_no_semi.o)
    0x080004ea   0x080004ea   0x00000000   Code   RO         1381    .text               c_w.l(indicate_semi.o)
    0x080004ea   0x080004ea   0x00000002   PAD
    0x080004ec   0x080004ec   0x0000000c   Code   RO          144    .text.ADC1_2_IRQHandler  stm32f1xx_it.o
    0x080004f8   0x080004f8   0x0000004c   Code   RO          182    .text.ADC_ConversionStop_Disable  stm32f1xx_hal_adc.o
    0x08000544   0x08000544   0x0000004c   Code   RO          204    .text.ADC_DMAConvCplt  stm32f1xx_hal_adc.o
    0x08000590   0x08000590   0x00000016   Code   RO          208    .text.ADC_DMAError  stm32f1xx_hal_adc.o
    0x080005a6   0x080005a6   0x00000006   Code   RO          206    .text.ADC_DMAHalfConvCplt  stm32f1xx_hal_adc.o
    0x080005ac   0x080005ac   0x0000006c   Code   RO          190    .text.ADC_Enable    stm32f1xx_hal_adc.o
    0x08000618   0x08000618   0x00000002   Code   RO          126    .text.BusFault_Handler  stm32f1xx_it.o
    0x0800061a   0x0800061a   0x00000002   PAD
    0x0800061c   0x0800061c   0x0000000c   Code   RO          138    .text.DMA1_Channel1_IRQHandler  stm32f1xx_it.o
    0x08000628   0x08000628   0x0000000c   Code   RO          140    .text.DMA1_Channel4_IRQHandler  stm32f1xx_it.o
    0x08000634   0x08000634   0x0000000c   Code   RO          142    .text.DMA1_Channel5_IRQHandler  stm32f1xx_it.o
    0x08000640   0x08000640   0x00000026   Code   RO          414    .text.DMA_SetConfig  stm32f1xx_hal_dma.o
    0x08000666   0x08000666   0x00000002   Code   RO          132    .text.DebugMon_Handler  stm32f1xx_it.o
    0x08000668   0x08000668   0x00000008   Code   RO           33    .text.Error_Handler  main.o
    0x08000670   0x08000670   0x00000002   Code   RO          260    .text.HAL_ADCEx_InjectedConvCpltCallback  stm32f1xx_hal_adc_ex.o
    0x08000672   0x08000672   0x00000002   PAD
    0x08000674   0x08000674   0x00000114   Code   RO          224    .text.HAL_ADC_ConfigChannel  stm32f1xx_hal_adc.o
    0x08000788   0x08000788   0x000000d4   Code   RO           17    .text.HAL_ADC_ConvCpltCallback  maglev_plate.o
    0x0800085c   0x0800085c   0x00000002   Code   RO          220    .text.HAL_ADC_ConvHalfCpltCallback  stm32f1xx_hal_adc.o
    0x0800085e   0x0800085e   0x00000002   Code   RO          222    .text.HAL_ADC_ErrorCallback  stm32f1xx_hal_adc.o
    0x08000860   0x08000860   0x000000ec   Code   RO          214    .text.HAL_ADC_IRQHandler  stm32f1xx_hal_adc.o
    0x0800094c   0x0800094c   0x00000110   Code   RO          178    .text.HAL_ADC_Init  stm32f1xx_hal_adc.o
    0x08000a5c   0x08000a5c   0x00000002   Code   RO          218    .text.HAL_ADC_LevelOutOfWindowCallback  stm32f1xx_hal_adc.o
    0x08000a5e   0x08000a5e   0x00000002   PAD
    0x08000a60   0x08000a60   0x000000a4   Code   RO           57    .text.HAL_ADC_MspInit  adc.o
    0x08000b04   0x08000b04   0x00000100   Code   RO          202    .text.HAL_ADC_Start_DMA  stm32f1xx_hal_adc.o
    0x08000c04   0x08000c04   0x00000040   Code   RO          418    .text.HAL_DMA_Abort  stm32f1xx_hal_dma.o
    0x08000c44   0x08000c44   0x00000088   Code   RO          420    .text.HAL_DMA_Abort_IT  stm32f1xx_hal_dma.o
    0x08000ccc   0x08000ccc   0x00000138   Code   RO          424    .text.HAL_DMA_IRQHandler  stm32f1xx_hal_dma.o
    0x08000e04   0x08000e04   0x0000006c   Code   RO          408    .text.HAL_DMA_Init  stm32f1xx_hal_dma.o
    0x08000e70   0x08000e70   0x00000066   Code   RO          416    .text.HAL_DMA_Start_IT  stm32f1xx_hal_dma.o
    0x08000ed6   0x08000ed6   0x00000002   PAD
    0x08000ed8   0x08000ed8   0x00000020   Code   RO          294    .text.HAL_Delay     stm32f1xx_hal.o
    0x08000ef8   0x08000ef8   0x0000019c   Code   RO          384    .text.HAL_GPIO_Init  stm32f1xx_hal_gpio.o
    0x08001094   0x08001094   0x0000000a   Code   RO          390    .text.HAL_GPIO_WritePin  stm32f1xx_hal_gpio.o
    0x0800109e   0x0800109e   0x00000002   PAD
    0x080010a0   0x080010a0   0x00000008   Code   RO          286    .text.HAL_GetTick   stm32f1xx_hal.o
    0x080010a8   0x080010a8   0x00000014   Code   RO          284    .text.HAL_IncTick   stm32f1xx_hal.o
    0x080010bc   0x080010bc   0x00000020   Code   RO          274    .text.HAL_Init      stm32f1xx_hal.o
    0x080010dc   0x080010dc   0x0000003c   Code   RO          276    .text.HAL_InitTick  stm32f1xx_hal.o
    0x08001118   0x08001118   0x00000040   Code   RO          155    .text.HAL_MspInit   stm32f1xx_hal_msp.o
    0x08001158   0x08001158   0x0000001c   Code   RO          448    .text.HAL_NVIC_EnableIRQ  stm32f1xx_hal_cortex.o
    0x08001174   0x08001174   0x00000038   Code   RO          444    .text.HAL_NVIC_SetPriority  stm32f1xx_hal_cortex.o
    0x080011ac   0x080011ac   0x00000020   Code   RO          442    .text.HAL_NVIC_SetPriorityGrouping  stm32f1xx_hal_cortex.o
    0x080011cc   0x080011cc   0x000000f0   Code   RO          370    .text.HAL_RCCEx_PeriphCLKConfig  stm32f1xx_hal_rcc_ex.o
    0x080012bc   0x080012bc   0x00000138   Code   RO          338    .text.HAL_RCC_ClockConfig  stm32f1xx_hal_rcc.o
    0x080013f4   0x080013f4   0x00000014   Code   RO          350    .text.HAL_RCC_GetPCLK1Freq  stm32f1xx_hal_rcc.o
    0x08001408   0x08001408   0x0000001c   Code   RO          352    .text.HAL_RCC_GetPCLK2Freq  stm32f1xx_hal_rcc.o
    0x08001424   0x08001424   0x00000054   Code   RO          340    .text.HAL_RCC_GetSysClockFreq  stm32f1xx_hal_rcc.o
    0x08001478   0x08001478   0x00000334   Code   RO          336    .text.HAL_RCC_OscConfig  stm32f1xx_hal_rcc.o
    0x080017ac   0x080017ac   0x00000028   Code   RO          456    .text.HAL_SYSTICK_Config  stm32f1xx_hal_cortex.o
    0x080017d4   0x080017d4   0x0000004e   Code   RO          926    .text.HAL_TIMEx_ConfigBreakDeadTime  stm32f1xx_hal_tim_ex.o
    0x08001822   0x08001822   0x00000002   PAD
    0x08001824   0x08001824   0x0000005c   Code   RO          924    .text.HAL_TIMEx_MasterConfigSynchronization  stm32f1xx_hal_tim_ex.o
    0x08001880   0x08001880   0x00000058   Code   RO          615    .text.HAL_TIM_Base_Init  stm32f1xx_hal_tim.o
    0x080018d8   0x080018d8   0x0000005c   Code   RO           88    .text.HAL_TIM_Base_MspInit  tim.o
    0x08001934   0x08001934   0x0000004c   Code   RO          625    .text.HAL_TIM_Base_Start  stm32f1xx_hal_tim.o
    0x08001980   0x08001980   0x000000f6   Code   RO          803    .text.HAL_TIM_ConfigClockSource  stm32f1xx_hal_tim.o
    0x08001a76   0x08001a76   0x00000002   PAD
    0x08001a78   0x08001a78   0x000000bc   Code   RO           82    .text.HAL_TIM_MspPostInit  tim.o
    0x08001b34   0x08001b34   0x00000098   Code   RO          777    .text.HAL_TIM_PWM_ConfigChannel  stm32f1xx_hal_tim.o
    0x08001bcc   0x08001bcc   0x00000058   Code   RO          669    .text.HAL_TIM_PWM_Init  stm32f1xx_hal_tim.o
    0x08001c24   0x08001c24   0x00000002   Code   RO          671    .text.HAL_TIM_PWM_MspInit  stm32f1xx_hal_tim.o
    0x08001c26   0x08001c26   0x00000002   PAD
    0x08001c28   0x08001c28   0x0000009c   Code   RO          677    .text.HAL_TIM_PWM_Start  stm32f1xx_hal_tim.o
    0x08001cc4   0x08001cc4   0x00000002   Code   RO         1040    .text.HAL_UARTEx_RxEventCallback  stm32f1xx_hal_uart.o
    0x08001cc6   0x08001cc6   0x00000002   Code   RO         1038    .text.HAL_UART_ErrorCallback  stm32f1xx_hal_uart.o
    0x08001cc8   0x08001cc8   0x00000294   Code   RO         1032    .text.HAL_UART_IRQHandler  stm32f1xx_hal_uart.o
    0x08001f5c   0x08001f5c   0x0000005e   Code   RO          948    .text.HAL_UART_Init  stm32f1xx_hal_uart.o
    0x08001fba   0x08001fba   0x00000002   PAD
    0x08001fbc   0x08001fbc   0x000000f0   Code   RO          105    .text.HAL_UART_MspInit  usart.o
    0x080020ac   0x080020ac   0x00000002   Code   RO         1046    .text.HAL_UART_RxCpltCallback  stm32f1xx_hal_uart.o
    0x080020ae   0x080020ae   0x00000002   PAD
    0x080020b0   0x080020b0   0x00000070   Code   RO          976    .text.HAL_UART_Transmit_DMA  stm32f1xx_hal_uart.o
    0x08002120   0x08002120   0x00000002   Code   RO         1042    .text.HAL_UART_TxCpltCallback  stm32f1xx_hal_uart.o
    0x08002122   0x08002122   0x00000002   Code   RO         1044    .text.HAL_UART_TxHalfCpltCallback  stm32f1xx_hal_uart.o
    0x08002124   0x08002124   0x00000002   Code   RO          122    .text.HardFault_Handler  stm32f1xx_it.o
    0x08002126   0x08002126   0x00000002   PAD
    0x08002128   0x08002128   0x00000078   Code   RO           55    .text.MX_ADC1_Init  adc.o
    0x080021a0   0x080021a0   0x00000050   Code   RO           71    .text.MX_DMA_Init   dma.o
    0x080021f0   0x080021f0   0x000000d8   Code   RO           45    .text.MX_GPIO_Init  gpio.o
    0x080022c8   0x080022c8   0x000000f8   Code   RO           80    .text.MX_TIM1_Init  tim.o
    0x080023c0   0x080023c0   0x000000c8   Code   RO           84    .text.MX_TIM2_Init  tim.o
    0x08002488   0x08002488   0x00000068   Code   RO           86    .text.MX_TIM3_Init  tim.o
    0x080024f0   0x080024f0   0x00000038   Code   RO          103    .text.MX_USART1_UART_Init  usart.o
    0x08002528   0x08002528   0x00000002   Code   RO          124    .text.MemManage_Handler  stm32f1xx_it.o
    0x0800252a   0x0800252a   0x00000002   Code   RO          120    .text.NMI_Handler   stm32f1xx_it.o
    0x0800252c   0x0800252c   0x00000002   Code   RO          134    .text.PendSV_Handler  stm32f1xx_it.o
    0x0800252e   0x0800252e   0x00000002   Code   RO          130    .text.SVC_Handler   stm32f1xx_it.o
    0x08002530   0x08002530   0x00000004   Code   RO          136    .text.SysTick_Handler  stm32f1xx_it.o
    0x08002534   0x08002534   0x00000086   Code   RO           31    .text.SystemClock_Config  main.o
    0x080025ba   0x080025ba   0x00000002   Code   RO         1076    .text.SystemInit    system_stm32f1xx.o
    0x080025bc   0x080025bc   0x0000006c   Code   RO          619    .text.TIM_Base_SetConfig  stm32f1xx_hal_tim.o
    0x08002628   0x08002628   0x0000001e   Code   RO          653    .text.TIM_CCxChannelCmd  stm32f1xx_hal_tim.o
    0x08002646   0x08002646   0x00000002   PAD
    0x08002648   0x08002648   0x00000050   Code   RO          763    .text.TIM_OC1_SetConfig  stm32f1xx_hal_tim.o
    0x08002698   0x08002698   0x00000058   Code   RO          765    .text.TIM_OC2_SetConfig  stm32f1xx_hal_tim.o
    0x080026f0   0x080026f0   0x00000054   Code   RO          767    .text.TIM_OC3_SetConfig  stm32f1xx_hal_tim.o
    0x08002744   0x08002744   0x00000044   Code   RO          769    .text.TIM_OC4_SetConfig  stm32f1xx_hal_tim.o
    0x08002788   0x08002788   0x00000022   Code   RO          805    .text.TIM_TI1_ConfigInputStage  stm32f1xx_hal_tim.o
    0x080027aa   0x080027aa   0x00000024   Code   RO          807    .text.TIM_TI2_ConfigInputStage  stm32f1xx_hal_tim.o
    0x080027ce   0x080027ce   0x0000000c   Code   RO         1036    .text.UART_DMAAbortOnError  stm32f1xx_hal_uart.o
    0x080027da   0x080027da   0x0000004e   Code   RO          982    .text.UART_DMAError  stm32f1xx_hal_uart.o
    0x08002828   0x08002828   0x0000003c   Code   RO          978    .text.UART_DMATransmitCplt  stm32f1xx_hal_uart.o
    0x08002864   0x08002864   0x00000006   Code   RO          980    .text.UART_DMATxHalfCplt  stm32f1xx_hal_uart.o
    0x0800286a   0x0800286a   0x0000004e   Code   RO          996    .text.UART_EndRxTransfer  stm32f1xx_hal_uart.o
    0x080028b8   0x080028b8   0x0000001c   Code   RO          994    .text.UART_EndTxTransfer  stm32f1xx_hal_uart.o
    0x080028d4   0x080028d4   0x000000c4   Code   RO         1034    .text.UART_Receive_IT  stm32f1xx_hal_uart.o
    0x08002998   0x08002998   0x00000080   Code   RO          952    .text.UART_SetConfig  stm32f1xx_hal_uart.o
    0x08002a18   0x08002a18   0x0000000c   Code   RO          146    .text.USART1_IRQHandler  stm32f1xx_it.o
    0x08002a24   0x08002a24   0x00000002   Code   RO          128    .text.UsageFault_Handler  stm32f1xx_it.o
    0x08002a26   0x08002a26   0x00000002   PAD
    0x08002a28   0x08002a28   0x00000024   Code   RO          446    .text.__NVIC_SetPriority  stm32f1xx_hal_cortex.o
    0x08002a4c   0x08002a4c   0x0000010c   Code   RO           29    .text.main          main.o
    0x08002b58   0x08002b58   0x00000070   Code   RO           13    .text.mp_init       maglev_plate.o
    0x08002bc8   0x08002bc8   0x0000005c   Code   RO           15    .text.mp_set_output  maglev_plate.o
    0x08002c24   0x08002c24   0x000000ac   Code   RO           11    .text.pid_calc      maglev_plate.o
    0x08002cd0   0x08002cd0   0x00000028   Code   RO         1283    i.__ARM_fpclassify  m_ws.l(fpclassify.o)
    0x08002cf8   0x08002cf8   0x00000388   Code   RO         1234    i.__ieee754_rem_pio2  m_ws.l(rred.o)
    0x08003080   0x08003080   0x000000fc   Code   RO         1217    i.__kernel_cos      m_ws.l(cos_i.o)
    0x0800317c   0x0800317c   0x000000aa   Code   RO         1285    i.__kernel_poly     m_ws.l(poly.o)
    0x08003226   0x08003226   0x00000002   PAD
    0x08003228   0x08003228   0x000000ec   Code   RO         1239    i.__kernel_sin      m_ws.l(sin_i.o)
    0x08003314   0x08003314   0x00000006   Code   RO         1221    i.__mathlib_dbl_infnan  m_ws.l(dunder.o)
    0x0800331a   0x0800331a   0x0000000c   Code   RO         1223    i.__mathlib_dbl_invalid  m_ws.l(dunder.o)
    0x08003326   0x08003326   0x00000002   PAD
    0x08003328   0x08003328   0x00000010   Code   RO         1226    i.__mathlib_dbl_underflow  m_ws.l(dunder.o)
    0x08003338   0x08003338   0x0000009c   Code   RO         1171    i.cos               m_ws.l(cos.o)
    0x080033d4   0x080033d4   0x000000a0   Code   RO         1179    i.sin               m_ws.l(sin.o)
    0x08003474   0x08003474   0x00000062   Code   RO         1132    x$fpl$d2f           fz_ws.l(d2f.o)
    0x080034d6   0x080034d6   0x00000002   PAD
    0x080034d8   0x080034d8   0x00000150   Code   RO         1134    x$fpl$dadd          fz_ws.l(daddsub_clz.o)
    0x08003628   0x08003628   0x00000010   Code   RO         1300    x$fpl$dcheck1       fz_ws.l(dcheck1.o)
    0x08003638   0x08003638   0x00000018   Code   RO         1267    x$fpl$dcmpinf       fz_ws.l(dcmpi.o)
    0x08003650   0x08003650   0x000002b0   Code   RO         1270    x$fpl$ddiv          fz_ws.l(ddiv.o)
    0x08003900   0x08003900   0x00000078   Code   RO         1196    x$fpl$deqf          fz_ws.l(deqf.o)
    0x08003978   0x08003978   0x0000005e   Code   RO         1142    x$fpl$dfix          fz_ws.l(dfix.o)
    0x080039d6   0x080039d6   0x0000002e   Code   RO         1274    x$fpl$dflt          fz_ws.l(dflt_clz.o)
    0x08003a04   0x08003a04   0x00000026   Code   RO         1273    x$fpl$dfltu         fz_ws.l(dflt_clz.o)
    0x08003a2a   0x08003a2a   0x00000002   PAD
    0x08003a2c   0x08003a2c   0x00000078   Code   RO         1198    x$fpl$dgeqf         fz_ws.l(dgeqf.o)
    0x08003aa4   0x08003aa4   0x00000078   Code   RO         1200    x$fpl$dleqf         fz_ws.l(dleqf.o)
    0x08003b1c   0x08003b1c   0x00000154   Code   RO         1146    x$fpl$dmul          fz_ws.l(dmul.o)
    0x08003c70   0x08003c70   0x0000009c   Code   RO         1202    x$fpl$dnaninf       fz_ws.l(dnaninf.o)
    0x08003d0c   0x08003d0c   0x0000000c   Code   RO         1204    x$fpl$dretinf       fz_ws.l(dretinf.o)
    0x08003d18   0x08003d18   0x00000016   Code   RO         1135    x$fpl$drsb          fz_ws.l(daddsub_clz.o)
    0x08003d2e   0x08003d2e   0x00000002   PAD
    0x08003d30   0x08003d30   0x000001d4   Code   RO         1136    x$fpl$dsub          fz_ws.l(daddsub_clz.o)
    0x08003f04   0x08003f04   0x00000056   Code   RO         1148    x$fpl$f2d           fz_ws.l(f2d.o)
    0x08003f5a   0x08003f5a   0x00000002   PAD
    0x08003f5c   0x08003f5c   0x000000c4   Code   RO         1150    x$fpl$fadd          fz_ws.l(faddsub_clz.o)
    0x08004020   0x08004020   0x00000054   Code   RO         1140    x$fpl$fcmp          fz_ws.l(dcmp.o)
    0x08004074   0x08004074   0x00000054   Code   RO         1156    x$fpl$fcmp          fz_ws.l(fcmp.o)
    0x080040c8   0x080040c8   0x00000018   Code   RO         1279    x$fpl$fcmpinf       fz_ws.l(fcmpi.o)
    0x080040e0   0x080040e0   0x00000068   Code   RO         1206    x$fpl$feqf          fz_ws.l(feqf.o)
    0x08004148   0x08004148   0x00000036   Code   RO         1158    x$fpl$ffix          fz_ws.l(ffix.o)
    0x0800417e   0x0800417e   0x00000002   PAD
    0x08004180   0x08004180   0x00000030   Code   RO         1163    x$fpl$fflt          fz_ws.l(fflt_clz.o)
    0x080041b0   0x080041b0   0x00000068   Code   RO         1208    x$fpl$fgeqf         fz_ws.l(fgeqf.o)
    0x08004218   0x08004218   0x00000068   Code   RO         1210    x$fpl$fleqf         fz_ws.l(fleqf.o)
    0x08004280   0x08004280   0x00000102   Code   RO         1168    x$fpl$fmul          fz_ws.l(fmul.o)
    0x08004382   0x08004382   0x0000008c   Code   RO         1212    x$fpl$fnaninf       fz_ws.l(fnaninf.o)
    0x0800440e   0x0800440e   0x0000000a   Code   RO         1214    x$fpl$fretinf       fz_ws.l(fretinf.o)
    0x08004418   0x08004418   0x000000ea   Code   RO         1152    x$fpl$fsub          fz_ws.l(faddsub_clz.o)
    0x08004502   0x08004502   0x00000064   Code   RO         1349    x$fpl$retnan        fz_ws.l(retnan.o)
    0x08004566   0x08004566   0x0000005c   Code   RO         1281    x$fpl$scalbn        fz_ws.l(scalbn.o)
    0x080045c2   0x080045c2   0x00000030   Code   RO         1362    x$fpl$trapveneer    fz_ws.l(trapv.o)
    0x080045f2   0x080045f2   0x00000000   Code   RO         1216    x$fpl$usenofp       fz_ws.l(usenofp.o)
    0x080045f2   0x080045f2   0x00000006   PAD
    0x080045f8   0x080045f8   0x00000030   Data   RO         1218    .constdata          m_ws.l(cos_i.o)
    0x08004628   0x08004628   0x000000cc   Data   RO         1236    .constdata          m_ws.l(rred.o)
    0x080046f4   0x080046f4   0x00000004   PAD
    0x080046f8   0x080046f8   0x00000028   Data   RO         1240    .constdata          m_ws.l(sin_i.o)
    0x08004720   0x08004720   0x00000010   Data   RO         1081    .rodata.AHBPrescTable  system_stm32f1xx.o
    0x08004730   0x08004730   0x00000008   Data   RO         1082    .rodata.APBPrescTable  system_stm32f1xx.o
    0x08004738   0x08004738   0x00000020   Data   RO         1437    Region$$Table       anon$$obj.o


    Execution Region RW_IRAM1 (Exec base: 0x20000000, Load base: 0x08004758, Size: 0x00000950, Max: 0x00005000, ABSOLUTE)

    Exec Addr    Load Addr    Size         Type   Attr      Idx    E Section Name        Object

    0x20000000   0x08004758   0x00000044   Data   RW           19    .data..L_MergedGlobals  maglev_plate.o
    0x20000044   0x0800479c   0x00000010   Data   RW           37    .data..L_MergedGlobals  main.o
    0x20000054   0x080047ac   0x00000008   Data   RW          325    .data..L_MergedGlobals  stm32f1xx_hal.o
    0x2000005c   0x080047b4   0x00000004   Data   RW         1080    .data.SystemCoreClock  system_stm32f1xx.o
    0x20000060        -       0x00000060   Zero   RW         1288    .bss                c_w.l(libspace.o)
    0x200000c0        -       0x0000006a   Zero   RW           20    .bss..L_MergedGlobals.1  maglev_plate.o
    0x2000012a   0x080047b8   0x00000002   PAD
    0x2000012c        -       0x00000030   Zero   RW           61    .bss.hadc1          adc.o
    0x2000015c        -       0x00000044   Zero   RW           62    .bss.hdma_adc1      adc.o
    0x200001a0        -       0x00000044   Zero   RW          110    .bss.hdma_usart1_rx  usart.o
    0x200001e4        -       0x00000044   Zero   RW          111    .bss.hdma_usart1_tx  usart.o
    0x20000228        -       0x00000048   Zero   RW           92    .bss.htim1          tim.o
    0x20000270        -       0x00000048   Zero   RW           93    .bss.htim2          tim.o
    0x200002b8        -       0x00000048   Zero   RW           94    .bss.htim3          tim.o
    0x20000300        -       0x00000048   Zero   RW          109    .bss.huart1         usart.o
    0x20000348        -       0x00000004   Zero   RW           35    .bss.theta          main.o
    0x2000034c        -       0x00000004   Zero   RW          324    .bss.uwTick         stm32f1xx_hal.o
    0x20000350        -       0x00000200   Zero   RW            2    HEAP                startup_stm32f103xb.o
    0x20000550        -       0x00000400   Zero   RW            1    STACK               startup_stm32f103xb.o


==============================================================================

Image component sizes


      Code (inc. data)   RO Data    RW Data    ZI Data      Debug   Object Name

       284         20          0          0        116       5171   adc.o
        80         12          0          0          0       1991   dma.o
       216         20          0          0          0       1817   gpio.o
       588         52          0         68        106       4551   maglev_plate.o
       410         32          0         16          4       2223   main.o
        64         26        236          0       1536        788   startup_stm32f103xb.o
       152          8          0          8          4       5834   stm32f1xx_hal.o
      1334         52          0          0          0      10837   stm32f1xx_hal_adc.o
         2          0          0          0          0       8460   stm32f1xx_hal_adc_ex.o
       192         28          0          0          0       8300   stm32f1xx_hal_cortex.o
       760         32          0          0          0       7079   stm32f1xx_hal_dma.o
       422         52          0          0          0       4588   stm32f1xx_hal_gpio.o
        64          8          0          0          0       1189   stm32f1xx_hal_msp.o
      1264         68          0          0          0       7211   stm32f1xx_hal_rcc.o
       240          8          0          0          0       3476   stm32f1xx_hal_rcc_ex.o
      1336         40          0          0          0      42678   stm32f1xx_hal_tim.o
       170          0          0          0          0      17712   stm32f1xx_hal_tim_ex.o
      1462         20          0          0          0      24080   stm32f1xx_hal_uart.o
        80         20          0          0          0       1485   stm32f1xx_it.o
         2          0         24          4          0       1563   system_stm32f1xx.o
       832         32          0          0        216       6786   tim.o
       296         32          0          0        208       5651   usart.o

    ----------------------------------------------------------------------
     10276        562        292         96       2192     173470   Object Totals
         0          0         32          0          0          0   (incl. Generated)
        26          0          0          0          2          0   (incl. Padding)

    ----------------------------------------------------------------------

      Code (inc. data)   RO Data    RW Data    ZI Data      Debug   Library Member Name

         8          0          0          0          0         68   __main.o
       104          0          0          0          0         84   __printf.o
         0          0          0          0          0          0   __rtentry.o
        12          0          0          0          0          0   __rtentry2.o
         6          0          0          0          0          0   __rtentry4.o
        52          8          0          0          0          0   __scatter.o
        26          0          0          0          0          0   __scatter_copy.o
        28          0          0          0          0          0   __scatter_zi.o
        48          6          0          0          0         96   _printf_char_common.o
         6          0          0          0          0          0   _printf_d.o
       120         16          0          0          0         92   _printf_dec.o
       178          0          0          0          0         88   _printf_intcommon.o
         0          0          0          0          0          0   _printf_percent.o
         4          0          0          0          0          0   _printf_percent_end.o
        22          0          0          0          0        100   _rserrno.o
        10          0          0          0          0         68   _sputc.o
        18          0          0          0          0         80   exit.o
         6          0          0          0          0        152   heapauxi.o
         0          0          0          0          0          0   indicate_semi.o
         2          0          0          0          0          0   libinit.o
         2          0          0          0          0          0   libinit2.o
         2          0          0          0          0          0   libshutdown.o
         2          0          0          0          0          0   libshutdown2.o
         8          4          0          0         96         68   libspace.o
        40          6          0          0          0         84   noretval__2sprintf.o
         8          4          0          0          0         68   rt_errno_addr_intlibspace.o
        78          0          0          0          0         80   rt_memclr_w.o
         2          0          0          0          0          0   rtexit.o
        10          0          0          0          0          0   rtexit2.o
        62          0          0          0          0         76   strlen.o
        12          4          0          0          0         68   sys_exit.o
        74          0          0          0          0         80   sys_stackheap_outer.o
         2          0          0          0          0         68   use_no_semi.o
        98          4          0          0          0         92   d2f.o
       826         16          0          0          0        356   daddsub_clz.o
        16          4          0          0          0         68   dcheck1.o
        84          0          0          0          0        196   dcmp.o
        24          0          0          0          0         68   dcmpi.o
       688        140          0          0          0        216   ddiv.o
       120          4          0          0          0         92   deqf.o
        94          4          0          0          0         92   dfix.o
        84          0          0          0          0        136   dflt_clz.o
       120          4          0          0          0         92   dgeqf.o
       120          4          0          0          0         92   dleqf.o
       340         12          0          0          0        104   dmul.o
       156          4          0          0          0         92   dnaninf.o
        12          0          0          0          0         68   dretinf.o
        86          4          0          0          0         84   f2d.o
       430          8          0          0          0        168   faddsub_clz.o
        84          0          0          0          0        196   fcmp.o
        24          0          0          0          0         68   fcmpi.o
       104          4          0          0          0         84   feqf.o
        54          4          0          0          0         84   ffix.o
        48          0          0          0          0         68   fflt_clz.o
       104          4          0          0          0         84   fgeqf.o
       104          4          0          0          0         84   fleqf.o
       258          4          0          0          0         84   fmul.o
       140          4          0          0          0         84   fnaninf.o
        10          0          0          0          0         68   fretinf.o
       100          0          0          0          0         68   retnan.o
        92          0          0          0          0         68   scalbn.o
        48          0          0          0          0         68   trapv.o
         0          0          0          0          0          0   usenofp.o
       156          8          0          0          0        104   cos.o
       252         22         48          0          0        124   cos_i.o
        34          6          0          0          0        204   dunder.o
        40          0          0          0          0         68   fpclassify.o
       170          0          0          0          0         96   poly.o
       904         76        204          0          0        140   rred.o
       160         10          0          0          0        108   sin.o
       236         12         40          0          0        128   sin_i.o

    ----------------------------------------------------------------------
      7400        414        296          0         96       5516   Library Totals
        28          0          4          0          0          0   (incl. Padding)

    ----------------------------------------------------------------------

      Code (inc. data)   RO Data    RW Data    ZI Data      Debug   Library Name

       952         48          0          0         96       1420   c_w.l
      4468        232          0          0          0       3124   fz_ws.l
      1952        134        292          0          0        972   m_ws.l

    ----------------------------------------------------------------------
      7400        414        296          0         96       5516   Library Totals

    ----------------------------------------------------------------------

==============================================================================


      Code (inc. data)   RO Data    RW Data    ZI Data      Debug   

     17676        976        588         96       2288     175802   Grand Totals
     17676        976        588         96       2288     175802   ELF Image Totals
     17676        976        588         96          0          0   ROM Totals

==============================================================================

    Total RO  Size (Code + RO Data)                18264 (  17.84kB)
    Total RW  Size (RW Data + ZI Data)              2384 (   2.33kB)
    Total ROM Size (Code + RO Data + RW Data)      18360 (  17.93kB)

==============================================================================

